:100000000C947B000C94A3000C94A3000C94D60FCA
:100010000C94A90F0C947C0F0C94A3000C946D0904
:100020000C94A3000C94A3000C94A3000C9440180F
:100030000C94A3000C94A3000C94A3000C94A300B4
:100040000C9431120C94A3000C94EF090C94C90980
:100050000C94A3000C94A3000C94A3000C94A30094
:100060000C9484130C94A300A40EC90E920EDC0E03
:10007000FB0E450F230F450F3D0F450F700FB30EBD
:10008000360F2F0F15131B132513331335133B1383
:100090004513531365136713020000000024002763
:1000A000002A0000000000250028002B00000000AE
:1000B0000800020100000304070000000000000027
:1000C00000010204081020408001020408102001F1
:1000D00002040810200404040404040404020202BC
:1000E00002020203030303030300000000230026AF
:1000F00000290000A51D11241FBECFEFD8E0DEBFF0
:10010000CDBF13E0A0E0B1E0E4E4F3E402C0059069
:100110000D92A430B107D9F726E0A4E0B3E001C006
:100120001D92AA36B207E1F710E0CBE7D0E004C099
:100130002197FE010E94881FCA37D107C9F70E9484
:1001400001190C94A0210C9400004F925F926F92C1
:100150007F928F929F92AF92BF92CF92DF92EF9257
:10016000FF920F931F93CF93DF93CDB7DEB7C454A5
:10017000D1090FB6F894DEBF0FBECDBF062F7A01AE
:100180008D3609F467C2B8F4803609F4B8C240F479
:10019000803509F4A7C18F3509F457C30C94F408CE
:1001A000893609F49AC28B3609F403C2823611F0FB
:1001B0000C94F408FCC4823709F491C540F48F36DE
:1001C00009F4D4C1803709F444C10C94F408883789
:1001D00009F4E9C08A3709F4A8C1863711F00C94F4
:1001E000F408DA0111962C91922F987125FF03C023
:1001F0008AE391E03FC7FA01808126FB222720F99C
:1002000031E02327983081F170F491110C94F408B7
:1002100091E090936C0480938E0410926D04109280
:100220008F0412E007C09031D9F1983109F46EC003
:100230000C94F408101778F4F701E10FF11D6181B7
:100240006795662767958081680F85ED95E00E9428
:1002500029171E5FEFCF81E00E94791683E191E0BC
:100260000197F1F70C94F40843816281063071F430
:1002700070E0B0E84B9F600D711D1124F7014581BE
:100280004795442747959481490F06C047954427D1
:100290004795460F6FEF7FEF0E94E40C0C94F40833
:1002A000E0910101E7301CF08AE591E0E3C6DA0154
:1002B00013969C91139712963C91663091F4632F9C
:1002C00070E0B0E89B9F600D711D1124DA01159656
:1002D0009C91159797959927979514964C91940F03
:1002E00006C0979599279795930F6FEF7FEFEF5F74
:1002F000E0930101B5E0EB02F0011124EB5CFC4F4F
:10030000808372836183938324836EC7209101016C
:1003100012163CF490E0622F022E000C770B35E0B1
:100320000FC08FEF809301015FC7349FF001359FAD
:10033000F00D1124EB5CFC4F4081841739F09F5F76
:10034000492F50E06417750784F790E085E022C0DC
:100350009830F8F4FA0131968E9FD0018F9FB00D3E
:100360001124AB5CBC4F3C91849FF001859FF00D44
:100370001124EB5CFC4F308311964D915C911297E8
:100380005283418313963C911397338314963C9187
:1003900034839F5F492F50E064177507CCF62150D6
:1003A0002093010121C7FA012181808190E0F0E8CA
:1003B0002F9F800D911D1124009721F0909305032C
:1003C000809304038091630681110EC710E08EEEC6
:1003D000810F823028F466E070E0812F0E94040EC5
:1003E0001F5F1431A1F781E0809363061092F80338
:1003F0001092F70310926D0410928F0410926B0408
:1004000080936A041092450461E082E10E943211F7
:1004100061E083E10E9432118091B9008E7F809368
:10042000B9008091B9008D7F8093B90088E48093F2
:10043000B80085E48093BC008BE790E19093FA03C9
:100440008093F9038CE790E19093FC038093FB0386
:10045000CBC6653008F4C8C6DA011C918EEF810F57
:10046000823108F0C1C611960C9111971296CC906A
:1004700012971396DC9013971496FC90E12FF0E0FE
:10048000E45BF94F80818C30B0F490E0FC01EE0F1A
:10049000FF1F8E0F9F1FFC01EA5FF94F808190E0E4
:1004A000FC01EE0FFF1F8E0F9F1FFC01EF51FA4F53
:1004B000808186FDE2C54D2D50E0B0E8FB9E400DE9
:1004C000511D1124602F70E0E0E8CE9E600D711D7B
:1004D0001124812F0E94C60D64E070E0812F0E94DC
:1004E000040E82C6DA0111962C9111978C9190E03E
:1004F000B0E82B9F800D911D1124909332038093BF
:1005000031032FB7F8948091290390912A03A09189
:100510002B03B0912C032FBF80932D0390932E03B8
:10052000A0932F03B09330035FC6623008F45CC61B
:10053000FA012181808190E0F0E82F9F800D911DCC
:100540001124009711F481E090E0909303018093CF
:100550000201609102017091030188E290E00E9423
:10056000601F70937403609373033EC6623008F497
:100570003BC6DA0111966C91119770E00230A1F040
:1005800012968C91B0E88B9FC0011124682B792BB7
:10059000033051F0FA01838190E090E4899F902D1F
:1005A00088271124682B792BD7018C910E943C0B52
:1005B0001BC680EF0E946C168CE60E946C161EEF24
:1005C00084EF810F863038F482E00E946C168AE056
:1005D0000E946C1609C0113039F483E00E946C1639
:1005E00088E00E946C1608C08DEF810F8230A8F35E
:1005F00089EF810F833088F3123130F484E00E9458
:100600006C168EE00E946C1680EF810F823030F401
:1006100086E00E946C1681E00E946C168FE70E94B3
:100620006C161F5F123109F41CC5123148F680E0C8
:100630000E946C1681E00E946C168BE00E946C1682
:1006400081E00E946C1681E00E946C1681E00E949D
:100650006C16B6CF662309F4C7C5FA01008180EF96
:100660000E946C168EE60E946C16802F0E946C16FB
:10067000043108F0F6C410E0F801EA57FA4F80811F
:100680000E946C16000F111F980126563A4F7901EF
:10069000D9018C918F770E946C16F701808191812E
:1006A0009C012078232B39F0880F892F881F990B04
:1006B0008F770E946C16F801E656FA4F808191817F
:1006C0009C012227307C232B09F4CBC4990F880B83
:1006D000990F982F881F8F77C2C480EF0E946C16E5
:1006E0008AE60E946C1612EF163010F4812F01C0BA
:1006F0008FE70E946C161F5F1630B1F7B2C4DA01A3
:100700008C91809333039091120391119AC01196AA
:100710009C912EE031E0309391042093900421E6E7
:1007200020939B048093940490939604891709F472
:1007300085C0883018F4983008F080C028EF280F62
:10074000263020F49850963060F078C08E3030F02B
:100750009E3008F473C0843108F070C0943108F002
:100760006DC01092980410929904E0912703F091C3
:100770002803309739F420E934E03093280320939C
:1007800027030BC0248535852115310511F0F901AA
:10079000F9CF20E934E03587248710929D04109228
:1007A0009C0490E0FC01EB52FF4FE491F0E0EE0F6F
:1007B000FF1FE751FF4F259134913093930420930D
:1007C0009204232B09F43AC0FC01EF53FF4FE4914C
:1007D000E0939504FC01E355FF4F849181110E9441
:1007E0007B128091960490E0FC01EF53FF4FE4915F
:1007F000E0939704FC01E355FF4F849181110E941F
:100800007B1260E0809194040E947F1160E08091EF
:1008100096040E947F1161E0809194040E9432113D
:1008200061E0809196040E943211109196048091AB
:1008300094040E949B15812F0E949B1581E0809358
:10084000120381E080933403CFC4FA019081818147
:100850009111A7C193818280912CF0E89F9F800C19
:10086000911C1124DA0115969C9115971496AC9061
:10087000B12CB0E89B9FA00CB11C112490910001F9
:10088000891721F09F3F09F0AFC404C0E8E9F0E008
:10089000149179C080930001E8E9F0E014911F3FC2
:1008A00009F4A2C4113009F448C050F1123009F023
:1008B0006AC01092B0001092B1009091B0009260A6
:1008C0009093B0009091B10091609093B100282F67
:1008D00030E0F901EB52FF4FE491F0E0EE0FFF1F23
:1008E000ED55FF4F4591549150931B0340931A03CC
:1008F000F901EF53FF4FE491E0931C0312E070C441
:1009000014BC15BC94B5926094BD95B5916095BD2D
:10091000282F30E0F901EB52FF4FE491F0E0EE0FA9
:10092000FF1FED55FF4F45915491F901EF53FF4FD4
:10093000E491E093070310E053C4109280001092FA
:100940008100909181009860909381009091810046
:10095000916090938100282F30E0F901EB52FF4F16
:10096000E491F0E0EE0FFF1FED55FF4F45915491DC
:10097000F901EF53FF4FE491E093060361E00E9419
:100980007F1111E089C017FD2FC461E00E947F1123
:10099000812F8D7F09F080C02401092C000C66088E
:1009A000770860E072E18AE790E0A30192010E947B
:1009B000BA1E25962CAF3DAF4EAF5FAF25976901AC
:1009C0007A01E1E0CE1AD108E108F108FFEFCF1675
:1009D000D104E104F10409F008F44CC060E472E4CD
:1009E0008FE090E0A30192010E94BA1E69017A0192
:1009F00081E0C81AD108E108F108123009F59FEF2B
:100A0000C916D104E104F10409F008F4AEC360E9A9
:100A100070ED83E090E0A30192010E94BA1E69018B
:100A20007A01A1E0CA1AD108E108F108BFEFCB169C
:100A3000D104E104F10411F008F023C383E025C0E0
:100A4000EFEFCE16D104E104F104B1F0A8F068E4B0
:100A500078EE81E090E0A30192010E94BA1E690144
:100A60007A01F1E0CF1AD108E108F108112309F465
:100A700080C346C381E001C082E0111106C095B574
:100A8000987F892B85BD43C085E09091B100987F08
:100A9000892B8093B1003BC02401092C000C66080F
:100AA000770860E072E18AE790E0A30192010E947A
:100AB000BA1E69017A01B1E0CB1AD108E108F10848
:100AC000C114D104E1E0EE06F10488F068E478EEA8
:100AD00081E090E0A30192010E94BA1E69017A01AF
:100AE000F1E0CF1AD108E108F10883E001C081E00C
:100AF000113069F490918100987F892B8093810057
:100B0000A114B10439F42FEF3FEFA90128C0A114BB
:100B1000B10469F09401220F331FD5010E948E1F8A
:100B200028EE33E040E050E00E94231F03C02FEF87
:100B30003FEFA901113099F0123019F1111154C38E
:100B4000C7BC20930C0330930D0340930E035093C6
:100B50000F0380916E00826080936E0045C3D09237
:100B60008900C092880020930803309309034093C2
:100B70000A0350930B0380916F00826080936F0093
:100B800033C3C092B30020931D0330931E034093E0
:100B90001F03509320038091700082608093700047
:100BA00023C3913009F020C30E9442091DC3209144
:100BB000710330917203263031050CF08DC0DA01DB
:100BC0008C918093110311969C911197909310032F
:100BD00014969C9114971396EC90F12CB0E89B9F7F
:100BE000E00CF11C1124F901E15AFC4F80836CE008
:100BF00070E00E94040E6CE070E0809110030E948F
:100C0000040E82E190E00E94951FDC0140911003E8
:100C10002091110330E0F901EF53FF4FE491149656
:100C2000EC93149750E0FA01EF53FF4FE4911596BF
:100C3000EC9315972B523F4FF9018491E82FF0E088
:100C4000EE0FFF1FED55FF4F8591949117969C93E2
:100C50008E931697FA01EB52FF4FE491F0E0EE0FFE
:100C6000FF1FE751FF4F859194911B969C938E93A4
:100C70001A97F9012491E22FF0E0EE0FFF1FE756DB
:100C8000FF4F8591949119969C938E931897C70165
:100C9000F5EFEF16F1E0FF0614F084EF91E049E381
:100CA000489F9001499F300D1124C9014C961D9613
:100CB0009C938E931C978091710390917203FC0119
:100CC000EE0FFF1FEB59FC4FB183A0830196909369
:100CD00072038093710388C28BE691E0CBC1DA0185
:100CE0008C918111E0C012968C9112971196CC9044
:100CF000D12CB0E88B9FC00CD11C1124FA011381B8
:100D0000812E912CA480B12C653069F58AE190E0A8
:100D10000E94951F7C01DC011B961C921E921A9763
:100D20001D921C92FC01168A178A108E118ED78292
:100D3000C68295868486B786A68661E0812F0E944A
:100D40007F1161E0D7011E968C910E947F11F701FF
:100D5000118A108A138A128A158A148A82E090E016
:100D6000918780873EC0673009F040C04580512C94
:100D70006680712C8AE190E00E94951F7C01FC0145
:100D80001386128611821082168A178A108E118E8F
:100D9000D782C68295868486B786A686518A408A7F
:100DA000738A628A61E0812F0E947F1161E0F701FE
:100DB00086850E947F1161E0D70150968C910E9438
:100DC0007F1161E0F70182890E947F11D70155965A
:100DD0001C921E92549784E090E019969C938E93F7
:100DE0001897F0924906E0924806FEC188EA91E021
:100DF0000E948F15602F70E080E090E02AE0FE01F5
:100E000031967F01AF010E94791EF7010190002009
:100E1000E9F731978F010E191F09B8016F5F7F4FF6
:100E200080E090E00E94B6206C01009731F0DC0178
:100E30001C92B7010E948A2102C000E010E0011557
:100E4000110511F419820EC00F33110510F00FE3D4
:100E500010E0A801B601C7010E949121F701E00F3F
:100E6000F11F108288ED91E00E948F15C7010E944A
:100E70008F15C601CC5BDF4F0FB6F894DEBF0FBEF7
:100E8000CDBFDF91CF911F910F91FF90EF90DF9039
:100E9000CF90BF90AF909F908F907F906F905F901A
:100EA0004F900C942D20813009F0C7C0FA012281A7
:100EB000822F90E0A0E0B0E0AC01BD01A7E0440FBC
:100EC000551F661F771FAA95D1F7838190E0A0E098
:100ED000B0E01EE0880F991FAA1FBB1F1A95D1F71B
:100EE000482B592B6A2B7B2B81814A015B01882A75
:100EF0008581048110E0F0E88F9F000D111D112401
:100F0000D7011696DC90E0904806F0904906E1146F
:100F1000F10409F48FC0F70126813781032E000CFC
:100F2000440B550B60E077E883E993E00E94BA1E1A
:100F3000CA01B901A50194010E94BA1ED7011296F7
:100F40002D933D934D935C931597D11003C011954C
:100F500001951109680117FF04C0CC24DD24C01AD3
:100F6000D10A1016110634F481E090E0F701918364
:100F7000808305C0012B19F0D7011D921C9204E05B
:100F800010E04AE0A42EB12CC114D10409F42CC104
:100F90000E94D211F70146885788608C718C9B01A2
:100FA000AC012419350946095709428053806480F1
:100FB0007580241535054605570530F3668B778B0C
:100FC000808F918F208131818285938521303105F9
:100FD00059F4019693878287268137818217930778
:100FE000A1F41386128611C0892B29F4F70186819A
:100FF000978193878287D7011A968D919C911B9731
:1010000001971B969C938E931A97B1E0CB1AD10847
:10101000F70120853185828593852530310511F4CE
:10102000B50101C0B8010E94741FBC01C7010E9434
:10103000A412AACF80EE91E01DC08230C9F4809145
:10104000480690914906892B81F080EF0E946C162A
:1010500082E70E946C1685E00E946C1680E00E9478
:101060006C1687EF0E946C16BFC08CE092E002C045
:1010700081E492E00E948F15B7C0812F0E94930DEA
:101080001ACA68E478EE81E090E0A30192010E9420
:10109000BA1E69017A01F1E0CF1AD108E108F1081E
:1010A0002FEFC216D104E104F10441F138F164E2FA
:1010B00074EF80E090E0A30192010E94BA1E6901E2
:1010C0007A0181E0C81AD108E108F1089FEFC9163A
:1010D000D104E104F10409F008F4D6CC62E17AE726
:1010E00080E090E0A30192010E94BA1E69017A019A
:1010F000A1E0CA1AD108E108F10818C084E0C5CC03
:101100009FEFC916D104E104F10489F180F162E195
:101110007AE780E090E0A30192010E94BA1E690183
:101120007A0181E0C81AD108E108F1084FEFC4162E
:10113000D104E104F104B9F0B0F025968CAD9DAD79
:10114000AEADBFAD25973AE0B595A7959795879534
:101150003A95D1F76C017D0131E0C31AD108E1085D
:10116000F10887E092CC86E090CC82E08ECC84E0DF
:1011700084CCEFEFCE16D104E104F10479F170F1E3
:1011800062E17AE780E090E0A30192010E94BA1E3A
:1011900069017A01A1E0CA1AD108E108F108BFEF9C
:1011A000CB16D104E104F104B9F0B0F025968CAD72
:1011B0009DADAEADBFAD25972AE0B595A7959795A6
:1011C00087952A95D1F76C017D0151E0C51AD108A8
:1011D000E108F10885E053CC84E051CC83E04FCCAA
:1011E00061E00E947F11D8CBCC5BDF4F0FB6F89443
:1011F000DEBF0FBECDBFDF91CF911F910F91FF904A
:10120000EF90DF90CF90BF90AF909F908F907F90A6
:101210006F905F904F900895CF92DF92EF92FF9280
:101220000F931F93CF93DF936C017A018B01C0E082
:10123000D0E0CE15DF0581F0D8016D918D01D6018A
:10124000ED91FC910190F081E02DC6010995892B6B
:1012500011F02196EECF7E01C701DF91CF911F9152
:101260000F91FF90EF90DF90CF9008950E947C2126
:101270008EE994E00E94341021E0892B09F420E0EB
:10128000822F089590910001891324C0E8E9F0E0CD
:10129000E4919FEF90930001E130B9F098F0E230D3
:1012A000C9F4909170009D7F9093700091E09093AD
:1012B000B0009091B100987F94609093B10010922B
:1012C000B30008C010926E0005C090916F009D7F22
:1012D00090936F0060E00C9432111F920F920FB642
:1012E0000F9211242F933F934F935F936F937F93AC
:1012F0008F939F93AF93BF93EF93FF9380911D03C1
:1013000090911E03A0911F03B0912003892B8A2B7B
:101310008B2B51F190911C03E0911A03F0911B0368
:1013200080818927808380911D0390911E03A09165
:101330001F03B0912003181619061A061B06C4F4E1
:1013400080911D0390911E03A0911F03B091200373
:101350000197A109B10980931D0390931E03A093E7
:101360001F03B093200304C0809100010E94420932
:10137000FF91EF91BF91AF919F918F917F916F916D
:101380005F914F913F912F910F900FBE0F901F9043
:1013900018951F920F920FB60F9211242F933F931F
:1013A0004F935F936F937F938F939F93AF93BF936D
:1013B000EF93FF938EE994E00E94A110FF91EF91CB
:1013C000BF91AF919F918F917F916F915F914F915D
:1013D0003F912F910F900FBE0F901F9018951F9265
:1013E0000F920FB60F9211242F938F939F93EF9329
:1013F000FF93E091AE04F091AF048081E091B404DA
:10140000F091B50482FD12C090818091B7048F5F86
:101410008F732091B804821751F0E091B704F0E087
:10142000E256FB4F958F8093B70401C08081FF91F6
:10143000EF919F918F912F910F900FBE0F901F9062
:101440001895FF920F931F93CF93DF93EC018F8139
:1014500020918A039D813E81F22EF094F322922303
:10146000F92A8227F8222F8308851985011511058D
:10147000D9F0D80113969C918F2D892389F0809102
:101480008A03892391E009F490E0F8019483808134
:101490009181DC01ED91FC910190F081E02D0995A5
:1014A000F80105811681E2CF9BB38C81892349F035
:1014B0009BB3892B8BBBE881F981808180938A0360
:1014C000C6CFDF91CF911F910F91FF900895CF93D9
:1014D000863080F540915D0350915E0321E030E05D
:1014E000672B81F4B90102C0660F771F8A95E2F776
:1014F000CB01809590958423952390935E038093F0
:101500005D0318C0082E02C0220F331F0A94E2F7B1
:10151000242B352B30935E0320935D03909164065A
:10152000911108C0C82F0E94BB11BC018C2FCF9114
:101530000C944C15CF9108958F929F92AF92BF92C9
:10154000CF92DF92EF92FF920F931F93CF93DF938F
:10155000833008F084C0982F990F990F990F58E0A5
:10156000952E990E94E1991510F444E1942E8B0177
:10157000D82FC82ECC0CCC0CCC0CC0E08824839483
:101580005B01BB24C91430F58EEF8C0D8231F8F469
:101590004C2D50E0FA01EA57FA4F20812230B8F47E
:1015A000882D90E08A219B21DD24D394009709F4B3
:1015B000D12C7A01EE0CFF1C213009F040C0C82963
:1015C000F701E656FA4F8D2D90E091838083880CC9
:1015D000C394D8CFD11108C0F8946BB106270C7F03
:1015E000C023C627CBB929C0D130D1F40C23F8943D
:1015F00095B18C2F8F7380958923902F9F73892BA2
:1016000085B998B1C295C695C695C370C0958C2F03
:1016100089230295069506950370C02FC82B0CC030
:10162000CF70F89488B16C2F660F660F60956823B1
:10163000C023CC0FCC0FC62BC8B9789410C0892B0F
:1016400009F4BECFF701E656FA4F808191810197E8
:1016500009F4B6CF62E08C2D0E947F11B1CFDF91EB
:10166000CF911F910F91FF90EF90DF90CF90BF909F
:10167000AF909F908F9008958F929F92AF92BF925C
:10168000CF92DF92EF92FF920F931F93CF93DF934E
:10169000EB01843108F00AC1082F10E0F801EA5785
:1016A000FA4F9081933009F496C0943009F0FEC04F
:1016B0008250823108F087C0F801E45BF94FE08086
:1016C000F12C6701CC0CDD1C603282E078070CF055
:1016D00042C077FD05C0653B710524F4DB0104C001
:1016E000A0E001C0A4EBB0E0F601EE0DFF1DEA5F43
:1016F000F94F818128E830E04901881A910887FD77
:101700009394880C991C880C991C092C000CAA082D
:10171000BB08828128E532E0281B310987FD33951B
:10172000220F331F220F331FA901330F660B770BD4
:101730009A01AB01281939094A095B090E94E41E84
:1017400024EB30E040E050E00E94BA1E820E931E6F
:10175000A41EB51E01C04B01F601EE0DFF1DEA5F90
:10176000F94F20812C3078F5318188E890E0831B97
:10177000910937FD9395880F991F880F991F881637
:10178000990684F0828148E552E0481B510987FDA3
:101790005395440F551F440F551FC4014815590553
:1017A0000CF4CA010297880F991F4FB7F89430E0E4
:1017B000F901EE0FFF1F2E0F3F1FF901EF51FA4FF6
:1017C000928381834FBF000F111FF801E656FA4F35
:1017D000D183C0836BC07B01D82F833049F08BEF5E
:1017E000800F823028F087EF800F833008F057C0D9
:1017F00061E08D2F0E947F11E114F10411F460E08B
:1018000005C08FEFE816F10429F461E08D2F0E94E6
:10181000321145C0F801E355FF4FE491E330F9F090
:1018200048F4E130B9F0E230A1F584B5806284BDBE
:10183000E8BC35C0E730E9F0E83019F1E43049F5AB
:1018400080918000806280938000F0928B00E09213
:101850008A0025C084B5806884BDE7BC20C0809123
:101860008000806880938000F0928900E092880078
:1018700016C08091B00080688093B000E092B30001
:101880000EC08091B00080628093B000E092B400FE
:1018900006C080E8E816F1040CF0B7CFB0CF000F17
:1018A000111FF801E656FA4FF182E082DF91CF91E5
:1018B0001F910F91FF90EF90DF90CF90BF90AF906E
:1018C0009F908F9008959EEF980F923180F4E82FAB
:1018D000F0E0DF01AA57BA4F9C91913041F4EE0F2E
:1018E000FF1FE656FA4F608371830C9432110895FE
:1018F0000F931F93CF93082F10E0F801EF5DFC4F7B
:101900009081C62FC923005A194F411104C0D80134
:101910009C91C91771F1682F80913B0590913C050E
:101920006F706069DC01ED91FC910190F081E02D18
:10193000099580913B0590913C056C2F6F77DC01F8
:10194000ED91FC910190F081E02D099580913B058E
:1019500090913C056C2F70E0660F672F661F770B28
:10196000DC01ED91FC910190F081E02D0995F801E9
:10197000C083CF911F910F910895833020F5282FB8
:1019800030E0F901EC5DFC4F6083672BE1F0F90179
:10199000EF5DFC4F9081811103C069B16C7F0FC076
:1019A000813049F463B136B16F7340E4349F9001E4
:1019B0001124622B04C066B16C7366956695692329
:1019C00041E00C94780C0895EF92FF920F931F93CF
:1019D000CF93DF93082FEB01142FF22E6F3F8FEF81
:1019E0007807F9F081E080936C0400938E041092E4
:1019F0006D0410928F0485ED95E00E9429178F2DBC
:101A00000E9479168091040390910503823091051C
:101A100050F0880F991F880F991F05970197F1F7CC
:101A200002C0C0E0D0E080916B048111FCCF912F07
:101A3000113208F090E281E080936B0480936A0495
:101A40002FEF2093690410926804290F20936704F4
:101A50008093460480914604202F220F822B80938E
:101A6000460480914504813061F4109245048091D0
:101A700046048093BB008091BC0083FDF8CF85ECC9
:101A800001C085EE8093BC0080916B048130E1F34E
:101A900080916804891710F490916804E7E4F4E0F9
:101AA000A7EDB3E080E0891721F021912D938F5F9E
:101AB000FACF1092F8038093F703E12EF12C90E017
:101AC000E816F9061CF486EA92E005C08E159F051B
:101AD00024F483EC92E00E948F1500939703C09347
:101AE0009803C7E9D3E0CE01875993408E159F052F
:101AF0006CF421969091F7038091F803981731F0D8
:101B000085ED95E00E948D108983EDCF62E0610F35
:101B100047E953E087E7DF91CF911F910F91FF9045
:101B2000EF900C946315A82FB0E0A45BB94F9C9183
:101B3000292F30E0F901EE0FFF1F2E0F3F1FF90193
:101B4000EA5FF94FE081F0E09F01220F331FE20FBF
:101B5000F31FEF51FA4F80818F7B808380914A067B
:101B6000981306C0992379F0915090934A060BC0C0
:101B7000882349F0E0914B06EF5FE0934B06F0E0DD
:101B8000E657FC4F90838FEF8C930895DB01909183
:101B90004A069C30A8F530914B06682F70E033233D
:101BA00069F0E32FF0E0E657FC4F8081FB01E45B36
:101BB000F94F8083315030934B0607C0FB01E45B43
:101BC000F94F90839F5F90934A06FB01E45BF94FC6
:101BD000808190E09C01220F331F820F931F1A1601
:101BE0001B0634F4141615061CF49A01AD0104C04A
:101BF00020E639E040E252E08A5F994F0C94C0172A
:101C00008FED92E00C948F158F929F92BF92CF929E
:101C1000DF92EF92FF920F931F93CF93DF93C82E23
:101C2000D12CE601C55CDA4FFE01E55BFF4F9081E8
:101C30009F3709F455C1963041F49091630699237A
:101C400021F06630710509F02FC17B01182F0EEFCE
:101C5000080F0231F8F464307105E1F0F601E45B3D
:101C6000F94F80818C30B0F490E0FC01EE0FFF1F43
:101C70008E0F9F1FFC01EA5FF94F808190E0FC010D
:101C8000EE0FFF1F8E0F9F1FFC01EF51FA4F808157
:101C900086FD10C152EFB52EB10E85E08B1558F0C0
:101CA00061E070E082E0E816F10411F060E070E0BD
:101CB0008B2D0E94670A023118F5E12FE695E69513
:101CC000E695212F2770F0E0EF5DFC4FE114F10461
:101CD00021F08BE0E816F10449F481E090E001C0C6
:101CE000880F2A95EAF79081892B09C081E090E05E
:101CF00001C0880F2A95EAF7809590818923808317
:101D00004601880C991CF401E656FA4F11821082A4
:101D10008EE0E816F10408F0B8C0F701EC5CFF4F64
:101D20000C94881F85E08B1508F4DAC0023120F48A
:101D300060E0812F0E947F11C55BDF4F88818F3764
:101D400009F4CEC082E09FC0023108F0C9C060E053
:101D5000812F0E947F11C55BDF4F88818F3709F487
:101D6000BFC01882BDC0023108F0BAC062E0812F46
:101D70000E947F11C55BDF4F88818F3711F08BE0A8
:101D80008883F401E656FA4F81E090E091838083E6
:101D9000A7C0023108F0A4C060E0812F0E94321178
:101DA00061E0812F0E947F11C55BDF4F88818F37F3
:101DB00009F496C081E067C0133049F08BEF810FC2
:101DC000823028F087EF810F833008F089C061E00E
:101DD000812F0E947F1161E0812F0E947F1160E0BE
:101DE000812F0E943211C55BDF4F88818F3709F444
:101DF00077C083E048C0023108F072C0C55BDF4F96
:101E000088818F3711F084E08883F601E45BF94F15
:101E100080818F3F09F452C090E0FC01EE0FFF1F5C
:101E20008E0F9F1FFC01EA5FF94F808190E0FC015B
:101E3000EE0FFF1F8E0F9F1FFC01EF51FA4F8081A5
:101E400086FD4EC03BC01251123008F049C0C55B40
:101E5000DF4F88818F3709F443C086E014C0C55B2B
:101E6000DF4F88818F37E1F18DE00DC0C55BDF4F1B
:101E700088818F37A9F18CE006C0C55BDF4F888170
:101E80008F3771F188E088832BC083EF92E0DF9178
:101E9000CF911F910F91FF90EF90DF90CF90BF9067
:101EA0009F908F900C948F15109263069FEF9093E4
:101EB0000101CBCE812F0E94930DECCE4FEF5FEF4F
:101EC0006FEF7FEF812FDF91CF911F910F91FF90E7
:101ED000EF90DF90CF90BF909F908F900C94C60DA5
:101EE000DF91CF911F910F91FF90EF90DF90CF90F6
:101EF000BF909F908F9008951F920F920FB60F92F0
:101F000011242F933F934F935F936F937F938F93FE
:101F10009F93AF93BF93EF93FF93E0912A06F091C5
:101F20002B06808180938A038AE296E00E94210A30
:101F3000FF91EF91BF91AF919F918F917F916F91A1
:101F40005F914F913F912F910F900FBE0F901F9077
:101F500018951F920F920FB60F9211242F933F9353
:101F60004F935F936F937F938F939F93AF93BF93A1
:101F7000EF93FF93E0913406F091350680818093D2
:101F80008A0384E396E00E94210AFF91EF91BF91BA
:101F9000AF919F918F917F916F915F914F913F9101
:101FA0002F910F900FBE0F901F9018951F920F92B8
:101FB0000FB60F9211242F933F934F935F936F931C
:101FC0007F938F939F93AF93BF93EF93FF93E09192
:101FD0003E06F0913F06808180938A038EE396E06F
:101FE0000E94210AFF91EF91BF91AF919F918F9134
:101FF0007F916F915F914F913F912F910F900FBE05
:102000000F901F901895FC01538D448D252F30E0C3
:10201000842F90E0821B930B541710F0CF960895F5
:1020200001970895FC01918D828D981761F0828D42
:10203000DF01A80FB11D5D968C91928D9F5F9F73FC
:10204000928F90E008958FEF9FEF0895FC01918D9E
:10205000828D981731F0828DE80FF11D858D90E00B
:1020600008958FEF9FEF0895FC01918D228D892FA8
:1020700090E0805C9F4F821B91098F739927089590
:1020800080E090E0892B29F00E94380981110C949E
:1020900000000895FC01A281B3812C9195819223C7
:1020A00087818223992361F0882379F080858823B2
:1020B00021F091858285890F818710861286089587
:1020C000811103C081E0808708952085211108C017
:1020D000992311F081E003C0882311F08FEF8287EC
:1020E000089585ED8093BC008091BC0084FDFCCFF9
:1020F00010926B040895089508950895E091F803EF
:102100008091F703E81730F4F0E0E952FC4F80814A
:1021100090E008958FEF9FEF08959091F8038091DC
:10212000F703981750F4E92FF0E0E952FC4F2081B3
:1021300030E09F5F9093F80302C02FEF3FEFC9019B
:102140000895FC01848DDF01A80FB11DA35ABF4F74
:102150002C91848D90E001968F739927848FA689A6
:10216000B7892C93A089B1898C91837080648C93FA
:10217000938D848D981306C00288F389E02D8081A9
:102180008F7D80830895EF92FF920F931F93CF93DB
:10219000DF93EC0181E0888F9B8D8C8D981305C0B7
:1021A000E889F989808185FD26C0F62E0B8D10E027
:1021B0000F5F1F4F0F731127E02E8C8DE8120CC09C
:1021C0000FB607FCFACFE889F989808185FFF5CF42
:1021D000CE010E94A110F1CF8B8DFE01E80FF11D01
:1021E000E35AFF4FF0829FB7F8940B8FEA89FB897F
:1021F000808180620AC09FB7F894EE89FF8960836E
:10220000E889F98980818370806480839FBF81E041
:1022100090E0DF91CF911F910F91FF90EF90089583
:10222000CF93DF93EC01888D8823C9F0EA89FB897D
:10223000808185FD05C0A889B9898C9186FD0FC074
:102240000FB607FCF5CF808185FFF2CFA889B98949
:102250008C9185FFEDCFCE010E94A110E7CFDF91D9
:10226000CF91089590E0FC01E355FF4F2491FC01CC
:10227000EF53FF4F3491FC01EB52FF4FE491EE23FB
:1022800009F43CC0222339F1233091F038F4213095
:10229000A9F0223001F584B58F7D12C0273091F06E
:1022A0002830A1F02430B9F4809180008F7D03C0E4
:1022B000809180008F77809380000DC084B58F77E8
:1022C00084BD09C08091B0008F7703C08091B000B9
:1022D0008F7D8093B000F0E0EE0FFF1FED55FF4FB4
:1022E000A591B4919FB7F894611104C08C91309579
:1022F000382302C0EC913E2B3C939FBF0895CF93AF
:10230000DF9390E0FC01EF53FF4F2491FC01EB526F
:10231000FF4F8491882361F190E0880F991FFC01A1
:10232000E756FF4FC591D491FC01ED55FF4FA591A4
:10233000B491611109C09FB7F894888120958223D8
:102340008883EC912E230BC0623061F49FB7F89420
:102350008881322F309583238883EC912E2B2C9308
:102360009FBF06C08FB7F894E8812E2B28838FBFBC
:10237000DF91CF9108958E3008F08E508770806481
:1023800080937C0080917A00806480937A008091B1
:102390007A0086FDFCCF809178002091790090E052
:1023A000922B08953FB7F894809141049091420494
:1023B000A0914304B091440426B5A89B05C02F3FCB
:1023C00019F00196A11DB11D3FBFBA2FA92F982F5B
:1023D0008827820F911DA11DB11DBC01CD0142E0D6
:1023E000660F771F881F991F4A95D1F708958F921E
:1023F0009F92AF92BF92CF92DF92EF92FF926B01CA
:102400007C010E94D2114B015C01C114D104E10492
:10241000F104F1F00E94D211DC01CB018819990975
:10242000AA09BB09883E9340A105B10570F321E0DC
:10243000C21AD108E108F10888EE880E83E0981EE0
:10244000A11CB11CC114D104E104F10419F7DDCFC2
:10245000FF90EF90DF90CF90BF90AF909F908F90C4
:1024600008951F920F920FB60F9211242F933F934E
:102470008F939F93AF93BF938091290390912A03E9
:10248000A0912B03B0912C033091400423E0230F43
:102490002D3720F40196A11DB11D05C026E8230F9C
:1024A0000296A11DB11D20934004809329039093AF
:1024B0002A03A0932B03B0932C03809141049091A5
:1024C0004204A0914304B09144040196A11DB11DA2
:1024D0008093410490934204A0934304B093440436
:1024E000BF91AF919F918F913F912F910F900FBE10
:1024F0000F901F901895833081F028F4813099F067
:102500008230A1F008958730A9F08830B9F0843086
:10251000D1F4809180008F7D03C0809180008F77FF
:1025200080938000089584B58F7702C084B58F7D35
:1025300084BD08958091B0008F7703C08091B00072
:102540008F7D8093B00008950F931F93CF93DF93F7
:10255000EC018B01888599850297F1F46130710552
:1025600069F024F4672BC1F460E009C062307105A2
:1025700059F06330710581F460E007C061E08C853B
:102580000E94321161E005C061E08C850E94321129
:1025900060E08E850E943211888599850497B9F58F
:1025A00001301105B1F04CF40115110581F561E020
:1025B0008C850E94321160E011C002301105B9F023
:1025C0000330110521F561E08C850E94321160E035
:1025D00013C060E08C850E94321161E08E850E94FC
:1025E000321161E088890E94321160E00DC060E024
:1025F0008C850E94321161E08E850E94321160E06C
:1026000088890E94321161E08A890E94321188858E
:102610009985059709F073C00A30110508F06FC05D
:10262000F801EE5BFF4F0C94881F60E08C850E94E0
:10263000321161E051C060E08C850E94321161E08E
:102640008E850E94321160E04BC060E08C850E9454
:10265000321161E08E850E94321160E088890E940B
:10266000321161E041C060E001C061E08C850E94F0
:10267000321161E005C061E08C850E94321160E09A
:102680008E850E94321160E009C061E08C850E9455
:10269000321160E08E850E94321161E088890E94CB
:1026A000321161E00DC061E08C850E94321160E062
:1026B0008E850E94321161E088890E94321160E0AB
:1026C0008A890E94321160E013C061E001C060E0BD
:1026D0008C850E94321160E08E850E94321161E08B
:1026E00088890E94321160E08A890E94321161E07B
:1026F0008C89DF91CF911F910F910C943211DF9152
:10270000CF911F910F9108951F920F920FB60F92C4
:1027100011242F933F934F935F936F937F938F93E6
:102720009F93AF93BF93EF93FF938091B900887FFE
:10273000803609F49CC068F5883209F45BC090F4D7
:10274000803109F454C038F4882309F4F6C0883085
:1027500009F44DC0F6C0883109F44CC0803209F448
:102760005DC0EFC0803409F468C048F4803309F4D8
:1027700055C0883309F0E5C080936904D8C080351E
:1027800009F44FC0883509F45DC0883409F0D9C018
:10279000D6C0883909F4C7C0A8F4883709F467C0DF
:1027A00038F4883609F463C0803709F460C0C9C0C2
:1027B000883809F4B8C0803909F45FC0803809F05E
:1027C000C0C05BC0803B09F486C038F4803A09F48D
:1027D00066C0883A09F47FC0B4C0803C09F4A7C041
:1027E000883C09F4A4C0883B09F48AC0AAC080913F
:1027F000460410C09091680480916704981770F5A2
:10280000E091680481E08E0F80936804F0E0E95B5A
:10281000FB4F80818093BB0085EC86C08093690468
:102820008EC0E091680481E08E0F809368048091EF
:10283000BB00F0E0E95BFB4F8083909168048091DE
:1028400067046EC0E091680481E08E0F8093680495
:102850008091BB00F0E0E95BFB4F808380916A04CC
:1028600081116DC081E08093450484EA61C083E0FA
:1028700080936B0410923F04CFCF80913F0480324D
:1028800008F051C0E0913F0481E08E0F80933F0437
:102890008091BB00F0E0E15EFB4F8083BDCF85EC13
:1028A0008093BC0010926B0480913F04803230F41E
:1028B000E0913F04F0E0E15EFB4F108260913F0445
:1028C00070E0E091FB03F091FC038FE194E0099547
:1028D00010923F0436C084E080936B0410921E0473
:1028E00010921D04E091F903F091FA03099580918B
:1028F0001D04811105C081E080931D041092FD0329
:10290000E0911E0481E08E0F80931E04F0E0E350FE
:10291000FC4F80818093BB0090911E0480911D0428
:10292000981708F479CF85E88093BC000AC085EC3D
:102930008093BC0010926B0404C0109269040E9442
:102940007110FF91EF91BF91AF919F918F917F9106
:102950006F915F914F913F912F910F900FBE0F900C
:102960001F90189540911D04262F30E0240F311D33
:1029700021323105DCF420916B042430C9F4FC01D0
:1029800080E090E0861758F430911D042191DC011D
:10299000A350BC4FA30FB11D2C930196F3CF809190
:1029A0001D04680F60931D0480E0089581E0089580
:1029B00082E008950F931F93CF93DF93EC010BE315
:1029C00015E0D8018D919C916C2F6F77DC01ED9112
:1029D000FC910190F081E02D0995F80180819181B1
:1029E000CC0FCD2FCC1FDD0B6C2F6F77DC01ED9161
:1029F000FC910190F081E02DDF91CF911F910F911B
:102A0000099480913B0590913C05DC01ED91FC918E
:102A10000190F081E02D67EF099480913B05909142
:102A20003C05DC01ED91FC910190F081E02D60EF1F
:102A30000994CF93DF93DC01FB01428380E994E0AA
:102A4000918380831296CD91DC9113979881838135
:102A5000892B888382818D7F813041F415969C91EA
:102A600015978381892B15968C93159782818150B8
:102A7000823040F416969C9116978381892B169686
:102A80008C9316979091680014968C91892B809363
:102A90006800DF91CF910895CF93DF93EB01A09170
:102AA0003B05B0913C058F70682F606EED91FC91F5
:102AB00011970190F081E02DCD010995CE01DF91B4
:102AC000CF910C94DA14FF920F931F93CF93DF935F
:102AD000C82F162FF42E052F0E940D1580913B054F
:102AE00090913C05DC01ED91FC910190F081E02D8D
:102AF0006C2F0995CF2DD02FCE01810F911D8C0108
:102B0000C017D10729F0899190E00E94DA14F8CF1C
:102B1000DF91CF911F910F91FF900C940115FC0153
:102B200001900020E9F73197BF01681B790BAC01D8
:102B300081E70C946315EF92FF921F93CF93DF937D
:102B400090E0FC01EB52FF4F2491211102C08FEF66
:102B500053C030E0225031092330310540F4220FB8
:102B6000331FD901A05FBE4FED90FC9002C0E12C55
:102B7000F12CD701ED91FC911197208117962C93A0
:102B8000FC01EF53FF4F1491F70180859185009769
:102B900071F0EC018B81181307C041E0BE01C70141
:102BA0000E94191580E028C08D819E81F0CF87E0BA
:102BB00090E00E94951FDC01892B19F4109202000D
:102BC000C6CF81E012968C93129716961C921E9295
:102BD000159713961C931397F70180859185892B80
:102BE00019F4B187A08702C0BE83AD8341E0BD0167
:102BF000C7010E94191581E0DF91CF911F91FF90CD
:102C0000EF900895CF93DF930E940D1580913B05BF
:102C100090913C05DC01ED91FC910190F081E02D5B
:102C200069E7099580913B0590913C05A0913E058F
:102C3000B0913F05EC01E881F9810190F081E02D30
:102C40006C91099580913B0590913C05A0913E05C2
:102C5000B0913F05EC01E881F9810190F081E02D10
:102C600011966C910995C2E080913D05C81760F4FA
:102C7000E0913E05F0913F05EC0FF11D808190E061
:102C80000E94DA14CF5FF0CFDF91CF910C94011541
:102C9000CF93DF93CBE3D5E088819981DC01ED917F
:102CA000FC910190F081E02D69EF0995888199816F
:102CB000DC01ED91FC910190F081E02D62E009953D
:102CC00088819981DC01ED91FC910190F081E02DEA
:102CD00065E0DF91CF910994A0913B05B0913C054F
:102CE000ED91FC9111970190F081E02D682FCD01BD
:102CF0000994282F30918F04313208F04AC0809116
:102D00006B048111FCCF90918E0442E040936B04E0
:102D100020936A042FEF2093690410926804309383
:102D20006704EEE6F4E0A7E4B4E020E0321721F017
:102D300041914D932F5FFACF1092460420914604A3
:102D4000990F922B9093460490914504913061F431
:102D500010924504909146049093BB009091BC0062
:102D600093FDF8CF95EC01C095EE9093BC00909147
:102D70006B049230E1F3909169049F3F79F0809168
:102D80006904803241F080916904803331F084E03D
:102D900005C081E003C082E001C083E010926D04B1
:102DA00010928F0410926C040895109240051092B6
:102DB000410510924205E3E4F5E0119285E0E33825
:102DC000F807D9F7109283051092850510928405B3
:102DD000E091CE05F091CF05309709F00994089560
:102DE0008091F70390E02091F803821B91090895E8
:102DF000089580E090E00895CF92DF92EF92FF92E5
:102E00000F931F93CF93DF937C01CB018A01209115
:102E10006C04222389F0EB016B01C40ED51ECC1586
:102E2000DD0569F06991D701ED91FC910190F08188
:102E3000E02DC7010995F3CF642F0E94B214C80199
:102E4000DF91CF911F910F91FF90EF90DF90CF9086
:102E50000895CF93DF931F92CDB7DEB7698320919A
:102E60006C042223D1F020918F04203240F021E025
:102E700030E0FC013383228380E090E015C0809134
:102E80006D04E82FF0E0E259FB4F998190838F5F4A
:102E900080936D0480938F0405C061E0CE0101969C
:102EA0000E94B21481E090E00F90DF91CF910895DD
:102EB0000F931F93CF93DF9381E0809364068091FB
:102EC0006306882329F0109263068FEF8093010137
:102ED0001092240310922103109260061092250391
:102EE000109222031092610610922603109223037F
:102EF000109262060CE416E0C0E0DFEF82EF8C0F68
:102F0000863018F462E070E00AC08EEF8C0F8231D8
:102F100020F48C2F0E94420905C061E070E08C2FE4
:102F20000E94040EF801D1938F01CF5FC43131F7B5
:102F30001092720310927103AFE5B3E0E5E6F3E09F
:102F40008FE78D9320813181232B11F01182108224
:102F5000329693E0E137F907A1F710925E031092E1
:102F60005D0310924B0610924A0610924906109289
:102F7000480610926406DF91CF911F910F9108953A
:102F8000DF92EF92FF920F931F93CF93DF93EC01A9
:102F9000D62E7A01890188818C3008F068C061E002
:102FA0008D2D0E947F118881E82FF0E09F01220F74
:102FB000331FE20FF31FEF51FA4F9D2D9F732081B6
:102FC000207CD22ED92AD08220E232E02E193F096D
:102FD00037FF02C02D5F3F4F3595279535952795D3
:102FE000298320E639E0201B310B37FF02C02D5F1B
:102FF0003F4F35952795359527952A836CE00E949C
:10300000541F9CE0899FB001112440E050E09B01D7
:10301000240F351FF901EE0FFF1F2E0F3F1FF9017F
:10302000EF51FA4F908196FD16C04F5F5F4F4C30C5
:10303000510569F781110FC01092800082E08093E2
:1030400081001092850010928400B19A80916F00E7
:10305000826080936F00E881F0E0CF01880F991FB4
:10306000E80FF91FEF51FA4F8081806480838881D7
:10307000DF91CF911F910F91FF90EF90DF90089516
:103080001F920F920FB60F9211242F933F934F93DD
:103090005F936F937F938F939F93AF93BF93EF93C0
:1030A000FF938091650687FF05C0109285001092FE
:1030B00084001BC020916506022E000C330B80910A
:1030C000050690E02817390784F480916506082EDC
:1030D000000C990BFC01EE0FFF1F8E0F9F1FFC01D0
:1030E000EF51FA4F808186FD15C0809165068F5F94
:1030F0008093650620916506022E000C330B8091AB
:10310000050690E028173907C4F4809165068C30D5
:1031100064F113C080916506082E000C990BFC0128
:10312000EE0FFF1F8E0F9F1FFC01EF51FA4F8081A2
:1031300060E08F730E943211D8CF8091840090910B
:103140008500049680349C4918F480E49CE905C00D
:1031500080918400909185000496909389008093DB
:1031600088008FEF809365063BC0209184003091EA
:10317000850080916506082E000C990BFC01EE0F6E
:10318000FF1F8E0F9F1FFC01EF51FA4F818192812B
:10319000820F931F90938900809388008091650629
:1031A000082E000C990BFC01EE0FFF1F8E0F9F1FC6
:1031B000FC01EF51FA4F808186FF12C080916506B5
:1031C000082E000C990BFC01EE0FFF1F8E0F9F1FA6
:1031D000FC01EF51FA4F808161E08F730E94321140
:1031E000FF91EF91BF91AF919F918F917F916F91DF
:1031F0005F914F913F912F910F900FBE0F901F90B5
:103200001895789484B5826084BD84B5816084BD4E
:1032100085B5826085BD85B5816085BD80916E0074
:10322000816080936E0010928100809181008260A5
:1032300080938100809181008160809381008091E2
:1032400080008160809380008091B10084608093D1
:10325000B1008091B00081608093B00080917A00CD
:10326000846080937A0080917A00826080937A00F3
:1032700080917A00816080937A0080917A008068E2
:1032800080937A001092C10081E180933D05809186
:103290003E0590913F050E942D20C0913D05D0E054
:1032A000CE0101960E94951F90933F0580933E05A5
:1032B000FC01EC0FFD1F108212E0DC011C9325E0E5
:1032C00011962C93AE014250510966E972E00296C4
:1032D0000E9491218CE39BE09093C3058093C205EB
:1032E0008CE99AE09093C5058093C40587E69AE03F
:1032F0009093C7058093C6058DEB9CE09093C9051C
:103300008093C80584E09EE09093CB058093CA0526
:1033100083E69CE09093CD058093CC0585EA90E010
:103320009093D3058093D20588E597E19093CF05DC
:103330008093CE05E091AE04F091AF041083E0914C
:10334000AE04F091AF041082E091AA04F091AB04B6
:103350001082E091AC04F091AD0480E18083109282
:10336000B604E091B204F091B30486E08083E0916A
:10337000B004F091B104808180618083E091B00459
:10338000F091B104808188608083E091B004F09175
:10339000B104808180688083E091B004F091B10431
:1033A00080818F7D80838EE994E090933C058093AB
:1033B0003B058091D405811140C061E08DE00E9401
:1033C0007F11C0E062ED70E080E090E00E94F711B4
:1033D00061E08DE00E94321168E270E080E090E0F0
:1033E0000E94F71160E08DE00E943211CF5FC23081
:1033F00049F76AEF70E080E090E00E94F711C0E0CA
:1034000062ED70E080E090E00E94F71161E08DE0F5
:103410000E94321168E270E080E090E00E94F711B3
:1034200060E08DE00E943211CF5FC53049F76DE753
:1034300070E080E090E00E94F7110E9448168091B1
:103440003D0581110E9402160E945817772473943B
:1034500068EEE62E63E0F62E75E0672EEBE0CE2EEA
:10346000D12CF3E2AF2EB12CA9E38A2E912C8091BE
:103470002403882349F069B18091210368236C7F7C
:1034800040E080E00E94780C80912503882381F041
:1034900083B196B1682F6F73B0E49B9FC001112474
:1034A000862B60912203682340E081E00E94780C23
:1034B00080912603882359F066B16C7366956695F2
:1034C00080912303682340E082E00E94780C809181
:1034D0003B0590913C05DC01ED91FC910084F18568
:1034E000E02D0995892B09F42CC180913B05909121
:1034F0003C05DC01ED91FC910284F385E02D0995FA
:103500008F3FBFEF9B0719F3382F209183052223AC
:1035100009F467C0873F09F055C010928305809178
:103520004305813751F0893709F03EC080913D0550
:10353000882369F20E940216CACFE091D005F0916B
:10354000D105309721F28091840590918505DC01A9
:103550001197B7FDDC01BD0175956795562F8BE37B
:1035600095E0EC0130E002962196351770F4DC010D
:1035700017962C9117972F8318964C9147954427AF
:103580004795240F2F833F5FEECFDB01BB27A55C60
:10359000BA4F17968C911797882311F018961C92A2
:1035A00083E495E0099593CFE091D205F091D3059E
:1035B000309709F48CCF60918405615044E455E064
:1035C000099585CF2091840530918505F901E55C49
:1035D000FA4F80872F5F3F4F3093850520938405F6
:1035E00076CF20914005222309F469C087FD67C08A
:1035F0009FEF920F90934005E92FF0E0E55CFA4FC2
:103600008087911164CF80914105882309F45FCFB1
:10361000803D09F445C050F4803901F1803C09F047
:103620004BC0E091C605F091C7053EC0843F39F11B
:10363000853F51F1803E09F03FC0E091C205F09115
:10364000C3053097C9F1809143056091440570E04E
:10365000B0E88B9F600D711D11242BC0E091C40553
:10366000F091C505309741F1809143056091440583
:1036700070E020E8829F600D711D11241AC0E09156
:10368000CA05F091CB0504C0E091CC05F091CD05C1
:10369000309791F06091430570E0809144050BC034
:1036A000E091C805F091C905309731F0609143056C
:1036B00070E08091420509951092410508CF303F96
:1036C00038F4282F207F30E08F708093420502C0AD
:1036D0009C013327203F310551F17CF4203C31051A
:1036E00009F124F420393105C9F0F1CE203D31052E
:1036F000C9F0203E310591F0EACE293F3105F1F0C5
:1037000034F4C901845F9109029740F0E0CE2F3F65
:10371000310509F0DCCE0E94D516D9CE42E04093A7
:10372000400502C07092400520934105D0CE7092B2
:1037300083051092850510928405C9CE0E94481613
:10374000C6CE8FB7F8944091290350912A03609117
:103750002B0370912C038FBF209082033090830342
:103760004090840350908503209102013091030121
:10377000C901A0E0B0E04219530964097509841732
:103780009507A607B70708F0D2C1820D931DA41DA7
:10379000B51D8093820390938303A0938403B09319
:1037A000850380918003909181039C012F5F3F4F9F
:1037B000309381032093800320917303309174032D
:1037C000281739070CF0D7C010928103109280039C
:1037D0008091710390917203892B09F4CCC0009100
:1037E0007E0310917F03F801EE0FFF1FEB59FC4F92
:1037F000C081D181E885F98590818C81892B808376
:10380000EE81FF8190818C81809589238083C60120
:103810000197F1F7EE81FF8190818C81892B808364
:10382000C5010197F1F7EE81FF8190818C81809530
:1038300089238083E885F98590818C81809589230F
:1038400080830E94D211DC01CB01805B994BAF4F8A
:10385000BF4F8E879F87A88BB98BEA85FB859081A8
:103860008D81892359F00E94D2112E853F85488988
:103870005989261737074807590778F7EA85FB85DE
:1038800090818D81892371F40E94D2112E853F850C
:1038900048895989261737074807590778F780E07C
:1038A00090E02DC00E94D2112C853D85DC01CB011A
:1038B000820F931FA11DB11D8E879F87A88BB98B87
:1038C000EA85FB8590818D81892361F00E94D21168
:1038D0002E853F8548895989261737074807590794
:1038E00078F7DDCF0E94D2112C853D852550310916
:1038F0004E855F85241B350BC901860F971FB401C8
:103900000E94601FCB0100937D0398012F5F3F4F02
:1039100030937F0320937E032091710330917203D3
:10392000215031090217130724F010927F031092DF
:103930007E036F7760937C03880F892F881F990B14
:1039400080937B0380EF0E946C1683E60E946C16C6
:10395000E0917D03F0E0E15AFC4F80810E946C16FB
:1039600080917C030E946C1680917B030E946C16F0
:1039700087EF0E946C16C6E8D5E012EF1630B0F45F
:103980008881823099F480915D0390915E03012ECD
:1039900002C0959587950A94E2F780FF07C0812FB2
:1039A0000E94BB11BC01812F0E944C151F5F219604
:1039B000163021F78091010187FD1BC0C0E02C2F3C
:1039C00030E080910101082E000C990B82179307BB
:1039D00084F0629EF001639EF00D1124EB5CFC4FBD
:1039E000618172812481438180810E94E40CCF5FD8
:1039F000E6CF80913403882309F45DC010927A03E6
:103A000010927903E0912703F0912803F093760355
:103A1000E0937503309729F41092760310927503A2
:103A200026C08185811104C00484F585E02DF2CF84
:103A3000F0937603E093750387FF03C091E0980F3E
:103A400091879185191614F49150918718160CF0EE
:103A500071C02091770330917803D901A80FB11D6F
:103A600087FDBA95CD019093780380937703809179
:103A7000770390917803282F2F7720937903880F6D
:103A8000892F881F990B8F7780937A0380EF0E948C
:103A90006C1681E60E946C16809133030E946C16AE
:103AA000809179030E946C1680917A030E946C16B3
:103AB00087EF0E946C168091310390913203892B1D
:103AC000B1F18FB7F8944091290350912A03609186
:103AD0002B0370912C038FBF80912D0390912E03A7
:103AE000A0912F03B0913003481B590B6A0B7B0B3D
:103AF00020913103309132032E9DC0012F9D900DF6
:103B00003E9D900D1124A0E0B0E084179507A60714
:103B1000B70768F40E94581798E088E10FB6F89448
:103B2000A895809360000FBE90936000FFCF0E9425
:103B300040109DCC2091770330917803F901E80F74
:103B4000F11D87FDFA95CF018ECFCF92DF92EF92D4
:103B5000FF921092A1041092A00478EEC72E73E099
:103B6000D72EE12CF12CC092A204D092A304E092B3
:103B7000A404F092A5048AE191E090939F048093BD
:103B80009E0485EC90E09093AB048093AA0484ECAF
:103B900090E09093AD048093AC0480EC90E090931F
:103BA000AF048093AE0481EC90E09093B1048093D5
:103BB000B00482EC90E09093B3048093B20486EC5E
:103BC00090E09093B5048093B4041092B7041092DF
:103BD000B8041092B9041092BA041092D40510924D
:103BE0003D0510923F0510923E050E94D516109299
:103BF000D8051092D705C092D905D092DA05E09287
:103C0000DB05F092DC058CE291E09093D605809381
:103C1000D505EDEEF0E08591949190933F06809369
:103C20003E068BE690E0909341068093400681E04B
:103C30008093420610924306109244061092470663
:103C400010924606EFEEF0E0859194919093350640
:103C5000809334068CE690E0909337068093360686
:103C600082E0809338061092390610923A0610923C
:103C70003D0610923C06E1EFF0E08591949190931F
:103C80002B0680932A068DE690E090932D06809374
:103C90002C0684E080932E0610922F061092300698
:103CA000109233061092320680910506A6E0B6E027
:103CB0009FEF48EB5BE08C3078F48C93282F30E05A
:103CC000F901EE0FFF1F2E0F3F1FF901EF51FA4FC1
:103CD000528341838F5F01C09C93139626E0AA32E2
:103CE000B20749F780930506FF90EF90DF90CF90E1
:103CF0000895BB272A3051F4992342F4BDE29095F0
:103D00008095709561957F4F8F4F9F4F0C94891EC2
:103D1000BB27FA01A62F6217710581059105330BA8
:103D200030FB66F0AA27660F771F881F991FAA1F0E
:103D3000A21710F0A21B63953850A9F7A05DAA3313
:103D400008F0A95DA19336F7B111B1931082CA01B1
:103D50000C94AA1EDC01FC01672F71917723E1F717
:103D6000329704C07C916D9370836291AE17BF0748
:103D7000C8F30895052E97FB1EF400940E94D11EEF
:103D800057FD07D00E94231F07FC03D04EF40C946C
:103D9000D11E50954095309521953F4F4F4F5F4F25
:103DA000089590958095709561957F4F8F4F9F4FA7
:103DB00008950E94451FA59F900DB49F900DA49F4C
:103DC000800D911D11240895B7FF0C94D91E0E94F7
:103DD000D91E821B930B08952F923F924F925F92B0
:103DE0006F927F928F929F92AF92BF92CF92DF920B
:103DF000EF92FF920F931F93CF93DF93CDB7DEB770
:103E0000CA1BDB0B0FB6F894DEBF0FBECDBF099403
:103E10002A88398848885F846E847D848C849B845A
:103E2000AA84B984C884DF80EE80FD800C811B8168
:103E3000AA81B981CE0FD11D0FB6F894DEBF0FBE97
:103E4000CDBFED010895A1E21A2EAA1BBB1BFD01F7
:103E50000DC0AA1FBB1FEE1FFF1FA217B307E40769
:103E6000F50720F0A21BB30BE40BF50B661F771FC1
:103E7000881F991F1A9469F76095709580959095A1
:103E80009B01AC01BD01CF010895A29FB001B39F7A
:103E9000C001A39F700D811D1124911DB29F700D53
:103EA000811D1124911D0895991B79E004C0991F6B
:103EB000961708F0961B881F7A95C9F78095089584
:103EC000AA1BBB1B51E107C0AA1FBB1FA617B70740
:103ED00010F0A61BB70B881F991F5A95A9F780955C
:103EE0009095BC01CD01089597FB072E16F4009420
:103EF00007D077FD09D00E94601F07FC05D03EF473
:103F0000909581959F4F0895709561957F4F089585
:103F1000EE0FFF1F0590F491E02D09940E94451FBC
:103F2000B7FF0895821B930B08950F931F93CF93B0
:103F3000DF938230910510F482E090E0E091680612
:103F4000F091690620E030E0A0E0B0E0309719F190
:103F5000408151810281138148175907C8F08417A5
:103F6000950769F4109731F012960C9312971396F7
:103F70001C9327C0009368061093690622C0211580
:103F8000310519F04217530718F49A01BD01EF01EA
:103F9000DF01F801DBCF21153105F9F0281B390BC2
:103FA0002430310580F48A819B816115710521F0EF
:103FB000FB019383828304C0909369068093680613
:103FC000FE01329644C0FE01E20FF31F81939193EC
:103FD00022503109398328833AC0209166063091F6
:103FE0006706232B41F4209106013091070130939D
:103FF0006706209366062091040130910501211582
:10400000310541F42DB73EB74091080150910901A7
:10401000241B350BE0916606F0916706E217F30763
:10402000A0F42E1B3F0B2817390778F0AC014E5F28
:104030005F4F2417350748F04E0F5F1F50936706F8
:10404000409366068193919302C0E0E0F0E0CF01D7
:10405000DF91CF911F910F910895CF93DF93009738
:1040600009F481C0FC01329713821282A091680684
:10407000B0916906109781F420813181820F931FDE
:1040800020916606309167062817390751F5F0939D
:104090006706E093660667C0ED0120E030E0CE17CA
:1040A000DF0740F44A815B819E0141155105F1F023
:1040B000EA01F5CFD383C28340815181840F951FDC
:1040C000C817D90759F488819981840F951F0296E2
:1040D000918380838A819B8193838283211531051B
:1040E00029F4F0936906E09368063DC0E901FB837B
:1040F000EA8349915991C40FD51FEC17FD0761F46C
:1041000080819181840F951F0296E90199838883AC
:10411000828193819B838A83E0E0F0E012968D9107
:104120009C911397009719F0FD01DC01F7CF8D9159
:104130009C9111979D012E5F3F4F820F931F2091FD
:104140006606309167062817390769F4309729F415
:10415000109269061092680602C013821282B09310
:104160006706A0936606DF91CF910895A0E0B0E0C6
:10417000ECEBF0E20C94F01EEC01009721F4CB0183
:104180000E94951FB4C0FC01E60FF71F9C0122504E
:104190003109E217F30708F4A8C0D9010D911C9169
:1041A000119706171707B0F00530110508F49BC0EA
:1041B000C80104978617970708F495C002501109A3
:1041C000061B170B019311936D937C93CF010E94F3
:1041D0002D2089C05B01A01AB10A4C01800E911EEE
:1041E000A0916806B0916906612C712CE12CF12C2C
:1041F000109709F446C08D919C911197A815B905A7
:10420000B1F56C0142E0C40ED11CCA14DB0478F194
:104210004C018A189B08640142E0C40ED11C12961E
:10422000BC9012971396AC91B5E0CB16D10440F038
:10423000B282A38391828082D9016D937C9309C05D
:104240000E5F1F4F800F911FF90191838083EB2D2B
:10425000FA2FE114F10431F0D7011396FC93EE9399
:10426000129741C0F0936906E09368063CC0681657
:10427000790608F43C017D0112960D90BC91A02DA9
:10428000B7CF809166069091670688169906E1F48B
:1042900066167706C8F48091040190910501009795
:1042A00041F48DB79EB74091080150910901841BDC
:1042B000950BE817F907C8F4F0936706E0936606D4
:1042C000F901718360830FC0CB010E94951F7C01AF
:1042D000009759F0A801BE010E948121CE010E94E1
:1042E0002D20C70104C0CE0102C080E090E0CDB710
:1042F000DEB7EEE00C940C1F81E090E0F8940C9493
:10430000A021FB01DC0102C001900D924150504000
:10431000D8F70895FB01DC0101900D920020E1F730
:104320000895FB01DC014150504048F001900D928E
:104330000020C9F701C01D9241505040E0F7089598
:04434000F894FFCF1F
:10434400FFFF130000006A068000000000004A100E
:104354003E0634062A0600000000C3100C090310B0
:104364001011341012102610000000002917FC163A
:10437400F9167D10F0168D107E1031302D6269749F
:104384002061646472657373696E67206E6F742054
:10439400737570706F7274656400746F6F206D61F3
:1043A4006E7920717565726965730050494E475F77
:1043B400434F4E464947204572726F723A20457802
:1043C400636565646564206E756D626572206F66F1
:1043D40020737570706F727465642070696E6720E5
:1043E40064657669636573005354455050455220A3
:1043F400434F4E464947204572726F723A205772B6
:104404006F6E67204E756D626572206F66206172F3
:1044140067756D656E74730061726763203D20007B
:1044240053544550504552204F5045524154452015
:104434004572726F723A204D4F544F52204E4F5472
:1044440020434F4E46494755524544005354455026
:10445400504552204649524D5741524520564552E7
:1044640053494F4E204572726F723A204E4F204D81
:104474004F544F525320434F4E464947555245449B
:10448400005354455050455220434F4E464947200F
:104494004572726F723A20554E4B4E4F574E205311
:1044A40054455050455220434F4D4D414E44002FEA
:1044B400686F6D652F50686F732F4769742F45447B
:1044C400445F50726F6A6563742F4669726D6174DC
:1044D40061506C75732F4669726D617461506C75AF
:1044E400732E696E6F004932433A20546F6F206D0A
:1044F400616E79206279746573207265636569768B
:104504006564004932433A20546F6F206665772012
:104514006279746573207265636569766564004DBC
:10452400617820736572766F732061747461636857
:10453400656400556E6B6E6F776E2070696E206DCA
:044544006F6465003B
:00000001FF
