:100000000C947B000C94A3000C94A3000C944C0D56
:100010000C944C0D0C944C0D0C94A3000C94A30068
:100020000C94A3000C94A3000C94A3000C94C005A2
:100030000C94A3000C94A3000C94A3000C94A300B4
:100040000C94020D0C94A3000C94120B0C94EC0A6B
:100050000C94A3000C94A3000C94A3000C94A30094
:100060000C94740E0C94A300AF04D4049D04ED040E
:100070000C053E0533053E053E053E056905BE04FB
:10008000F9090F0A60090F0AB0090F0A3E09E408CE
:100090000F0A0F0A0F0A0F0A0F0AB0070F0A8D087E
:1000A0000F0A2A0900000000240027002A0000008F
:1000B0000000250028002B000404040404040404A8
:1000C0000202020202020303030303030102040803
:1000D00010204080010204081020010204081020B2
:1000E00000000008000201000003040700000000F7
:1000F00000000000191511241FBECFEFD8E0DEBFAD
:10010000CDBF12E0A0E0B1E0E0EBFFE202C005905D
:100110000D92A030B107D9F725E0A0E0B2E001C010
:100120001D92A332B207E1F710E0CBE7D0E004C0A4
:100130002197FE010E949B16CA37D107C9F70E947A
:1001400062110C94D6170C9400008091D20290E0BA
:100150002091D302821B91090895089580E090E0D8
:100160000895A82FB0E0A05BBD4F9C91292F30E0EF
:10017000F901EE0FFF1F2E0F3F1FF901E550FB4F56
:10018000E081F0E09F01220F331FE20FF31FEA52DC
:10019000FB4F80818F7B808380914E02981306C035
:1001A000992379F0915090934E020BC0882349F027
:1001B000E0914F02EF5FE0934F02F0E0E150FE4F1D
:1001C00090838FEF8C930895CF92DF92EF92FF92FE
:1001D0000F931F93CF93DF937C01CB018A01209172
:1001E0004903222389F0EB016B01C40ED51ECC1507
:1001F000DD0569F06991D701ED91FC910190F081E5
:10020000E02DC7010995F3CF642F0E94A20FC8010A
:10021000DF91CF911F910F91FF90EF90DF90CF90E2
:100220000895CF93DF931F92CDB7DEB769832091F6
:1002300049032223D1F020916C03203240F021E0C9
:1002400030E0FC013383228380E090E015C0809190
:100250004A03E82FF0E0E55BFC4F998190838F5FC4
:1002600080934A0380936C0305C061E0CE01019640
:100270000E94A20F81E090E00F90DF91CF9108954E
:10028000DF92EF92FF920F931F93CF93DF93EC01D6
:10029000D62E7A01890188818C3008F068C061E02F
:1002A0008D2D0E94750C8881E82FF0E09F01220FB0
:1002B000331FE20FF31FEA52FB4F9D2D9F732081E6
:1002C000207CD22ED92AD08220E232E02E193F099A
:1002D00037FF02C02D5F3F4F359527953595279500
:1002E000298320E639E0201B310B37FF02C02D5F48
:1002F0003F4F35952795359527952A836CE00E94C9
:100300008F169CE0899FB001112440E050E09B01D2
:10031000240F351FF901EE0FFF1F2E0F3F1FF901AC
:10032000EA52FB4F908196FD16C04F5F5F4F4C30F5
:10033000510569F781110FC01092800082E080930F
:1003400081001092850010928400B19A80916F0014
:10035000826080936F00E881F0E0CF01880F991FE1
:10036000E80FF91FEA52FB4F808180648083888107
:10037000DF91CF911F910F91FF90EF90DF90089543
:100380008F929F92AF92BF92CF92DF92EF92FF92A5
:100390000F931F93CF93DF93833008F084C0982F7F
:1003A000990F990F990F58E0952E990E94E1991590
:1003B00010F444E1942E8B01D82FC82ECC0CCC0C19
:1003C000CC0CC0E0882483945B01BB24C91430F5B5
:1003D0008EEF8C0D8231F8F44C2D50E0FA01E3578A
:1003E000FB4F20812230B8F4882D90E08A219B2198
:1003F000DD24D394009709F4D12C7A01EE0CFF1C74
:10040000213009F040C0C829F701EF55FB4F8D2D71
:1004100090E091838083880CC394D8CFD11108C019
:10042000F8946BB106270C7FC023C627CBB929C02F
:10043000D130D1F40C23F89495B18C2F8F73809523
:100440008923902F9F73892B85B998B1C295C69542
:10045000C695C370C0958C2F892302950695069585
:100460000370C02FC82B0CC0CF70F89488B16C2FCC
:10047000660F660F60956823C023CC0FCC0FC62B88
:10048000C8B9789410C0892B09F4BECFF701EF5595
:10049000FB4F80819181019709F4B6CF62E08C2DEA
:1004A0000E94750CB1CFDF91CF911F910F91FF90FA
:1004B000EF90DF90CF90BF90AF909F908F90089576
:1004C0008F929F92AF92BF92CF92DF92EF92FF9264
:1004D0000F931F93CF93DF93EB01843108F00AC190
:1004E000082F10E0F801E357FB4F9081933009F497
:1004F00096C0943009F0FEC08250823108F087C067
:10050000F801E05BFD4FE080F12C6701CC0CDD1CB5
:10051000603282E078070CF042C077FD05C0653B91
:10052000710524F4DB0104C0A0E001C0A4EBB0E03D
:10053000F601EE0DFF1DE550FB4F818128E830E00C
:100540004901881A910887FD9394880C991C880C9E
:10055000991C092C000CAA08BB08828128E532E00E
:10056000281B310987FD3395220F331F220F331FBC
:10057000A901330F660B770B9A01AB0128193909D2
:100580004A095B090E94561624EB30E040E050E037
:100590000E942C16820E931EA41EB51E01C04B0194
:1005A000F601EE0DFF1DE550FB4F20812C3078F554
:1005B000318188E890E0831B910937FD9395880F7E
:1005C000991F880F991F8816990684F0828148E543
:1005D00052E0481B510987FD5395440F551F440FA6
:1005E000551FC401481559050CF4CA010297880F1C
:1005F000991F4FB7F89430E0F901EE0FFF1F2E0F4F
:100600003F1FF901EA52FB4F928381834FBF000FD6
:10061000111FF801EF55FB4FD183C0836BC07B01E5
:10062000D82F833049F08BEF800F823028F087EF8E
:10063000800F833008F057C061E08D2F0E94750C49
:10064000E114F10411F460E005C08FEFE816F10445
:1006500029F461E08D2F0E94280C45C0F801E0527A
:10066000FF4FE491E330F9F048F4E130B9F0E230C3
:10067000A1F584B5806284BDE8BC35C0E730E9F0FF
:10068000E83019F1E43049F5809180008062809370
:100690008000F0928B00E0928A0025C084B58068CB
:1006A00084BDE7BC20C0809180008068809380007A
:1006B000F0928900E092880016C08091B0008068B6
:1006C0008093B000E092B3000EC08091B0008062D1
:1006D0008093B000E092B40006C080E8E816F10410
:1006E0000CF0B7CFB0CF000F111FF801EF55FB4F43
:1006F000F182E082DF91CF911F910F91FF90EF90F7
:10070000DF90CF90BF90AF909F908F9008959EEF15
:10071000980F923180F4E82FF0E0DF01A357BB4F30
:100720009C91913041F4EE0FFF1FEF55FB4F60831A
:1007300071830C94280C0895DB0190914E029C303B
:10074000A8F530914F02682F70E0332369F0E32F52
:10075000F0E0E150FE4F8081FB01E05BFD4F8083C4
:10076000315030934F0207C0FB01E05BFD4F908397
:100770009F5F90934E02FB01E05BFD4F808190E014
:100780009C01220F331F820F931F1A161B0634F48D
:10079000141615061CF49A01AD0104C020E639E0D8
:1007A00040E252E085509B4F0C9440018DE291E075
:1007B0000C947B10CF93863080F54091AC02509121
:1007C000AD0221E030E0672B81F4B90102C0660F71
:1007D000771F8A95E2F7CB01809590958423952326
:1007E0009093AD028093AC0218C0082E02C0220F75
:1007F000331F0A94E2F7242B352B3093AD0220935C
:10080000AC0290916802911108C0C82F0E94B10CEF
:10081000BC018C2FCF910C94CA0FCF9108958F9269
:100820009F92BF92CF92DF92EF92FF920F931F930E
:10083000CF93DF93C82ED12CE601C65FDB4FFE01BC
:10084000ED57FF4F90819F3709F443C1963041F433
:1008500090916702992321F06630710509F01DC15E
:100860007B01182F0EEF080F0231F8F46430710588
:10087000E1F0F601E05BFD4F80818C30B0F490E058
:10088000FC01EE0FFF1F8E0F9F1FFC01E550FB4F79
:10089000808190E0FC01EE0FFF1F8E0F9F1FFC0177
:1008A000EA52FB4F808186FDFEC052EFB52EB10E9D
:1008B00085E08B1558F061E070E082E0E816F10405
:1008C00011F060E070E08B2D0E94DA03023118F520
:1008D000E12FE695E695E695212F2770F0E0E658A2
:1008E000FD4FE114F10421F08BE0E816F10449F426
:1008F00081E090E001C0880F2A95EAF79081892B6A
:1009000009C081E090E001C0880F2A95EAF7809540
:100910009081892380834601880C991CF401EF554E
:10092000FB4F118210828CE0E816F10408F0A6C09B
:10093000F701EC5CFF4F0C949B1685E08B1508F4D7
:10094000C8C0023120F460E0812F0E94750CCD57A1
:10095000DF4F88818F3709F4BCC082E08DC002313F
:1009600008F0B7C060E0812F0E94750CCD57DF4FB3
:1009700088818F3709F4ADC01882ABC0023108F00E
:10098000A8C062E0812F0E94750CCD57DF4F88818F
:100990008F3711F08BE08883F401EF55FB4F81E036
:1009A00090E09183808395C0023108F092C0FE01EF
:1009B000ED57FF4F8081833021F460E0812F0E944A
:1009C000280C61E0812F0E94750CCD57DF4F888184
:1009D0008F3709F47EC081E04FC0133049F08BEFB0
:1009E000810F823028F087EF810F833008F071C0CB
:1009F00061E0812F0E94750C61E0812F0E94750CCF
:100A000060E0812F0E94280CCD57DF4F88818F37FF
:100A100009F45FC083E030C0023108F05AC0CD57FE
:100A2000DF4F88818F3711F084E08883F601E05B27
:100A3000FD4F80818F3FD9F190E0FC01EE0FFF1F49
:100A40008E0F9F1FFC01E550FB4F808190E0FC0161
:100A5000EE0FFF1F8E0F9F1FFC01EA52FB4F80819C
:100A600086FD37C024C01251123098F5CD57DF4FA4
:100A700088818F3771F186E088832BC081E491E013
:100A8000DF91CF911F910F91FF90EF90DF90CF906A
:100A9000BF909F908F900C947B10109267029FEFF5
:100AA00090930001DDCE812F0E94B100FECE4FEF6A
:100AB0005FEF6FEF7FEF812FDF91CF911F910F914C
:100AC000FF90EF90DF90CF90BF909F908F900C940D
:100AD0009C03DF91CF911F910F91FF90EF90DF90DA
:100AE000CF90BF909F908F9008950F931F93CF93B7
:100AF000DF9381E08093680280916702882329F068
:100B0000109267028FEF8093000110927D02109285
:100B10007A021092640210927E0210927B0210926E
:100B2000650210927F0210927C021092660200E52C
:100B300012E0C0E0DFEF82EF8C0F863018F462E045
:100B400070E006C08EEF8C0F823128F461E070E017
:100B50008C2F0E940F04F801D1938F01CF5FC43115
:100B600051F71092AD021092AC0210924F02109207
:100B70004E0210926802DF91CF911F910F9108955C
:100B80001F920F920FB60F9211242F933F934F9302
:100B90005F936F937F938F939F93AF93BF93EF93E5
:100BA000FF938091690287FF05C010928500109223
:100BB00084001BC020916902022E000C330B80912F
:100BC000FA0490E02817390784F480916902082E0E
:100BD000000C990BFC01EE0FFF1F8E0F9F1FFC01F5
:100BE000EA52FB4F808186FD15C0809169028F5FBC
:100BF0008093690220916902022E000C330B8091D0
:100C0000FA0490E028173907C4F4809169028C3007
:100C100064F113C080916902082E000C990BFC014D
:100C2000EE0FFF1F8E0F9F1FFC01EA52FB4F8081CA
:100C300060E08F730E94280CD8CF8091840090913F
:100C40008500049680349C4918F480E49CE905C032
:100C50008091840090918500049690938900809300
:100C600088008FEF809369023BC02091840030910F
:100C7000850080916902082E000C990BFC01EE0F93
:100C8000FF1F8E0F9F1FFC01EA52FB4F8181928153
:100C9000820F931F9093890080938800809169024E
:100CA000082E000C990BFC01EE0FFF1F8E0F9F1FEB
:100CB000FC01EA52FB4F808186FF12C080916902DD
:100CC000082E000C990BFC01EE0FFF1F8E0F9F1FCB
:100CD000FC01EA52FB4F808161E08F730E94280C77
:100CE000FF91EF91BF91AF919F918F917F916F9104
:100CF0005F914F913F912F910F900FBE0F901F90DA
:100D00001895FF920F931F93CF93DF9300D0CDB729
:100D1000DEB7082F10E0F801E658FD4F9081F62E5F
:100D2000F9220C591D4F411104C0F8019081F916A8
:100D300011F12F2D30E03A832983A0914A04B0911C
:100D40004B041097B1F0682F6F706069ED91FC91C2
:100D500011970190F081E02DCD01099522E030E05E
:100D6000AE014F5F5F4F62E070E08AE494E00E9462
:100D7000560DF801F0820F900F90DF91CF911F91E7
:100D80000F91FF900895833020F5282F30E0F9016E
:100D9000E358FD4F6083672BE1F0F901E658FD4F02
:100DA0009081811103C069B16C7F0FC0813049F41B
:100DB00063B136B16F7340E4349F90011124622B0C
:100DC00004C066B16C7366956695692341E00C9426
:100DD00081060895EF92FF920F931F93CF93DF93B5
:100DE000D82F8B01C42FF22E6F3F8FEF7807F9F0C9
:100DF00081E080934903D0936B0310924A031092D1
:100E00006C038AEC94E00E9411018F2D0E94BE10A9
:100E100080914C0290914D028230910550F0880FE4
:100E2000991F880F991F05970197F1F702C000E0FD
:100E300010E0809148038111FCCF9C2FC13208F053
:100E400090E281E080934803809347032FEF209343
:100E5000460310924503290F2093440380932303F4
:100E6000809123032D2F220F822B809323038091C7
:100E70002203813061F41092220380912303809336
:100E8000BB008091BC0083FDF8CF85EC01C085EEEE
:100E90008093BC00809148038130E1F38091450349
:100EA000891710F490914503E4E2F3E0A2EBB2E07D
:100EB00080E0891721F021912D938F5FFACF109256
:100EC000D3028093D202EC2EF12C90E0E816F906C2
:100ED0001CF482E591E005C08E159F0524F48FE691
:100EE00091E00E947B10D0930C0200930D020CE065
:100EF00012E0C8018C5092408E159F057CF40F5F64
:100F00001F4F9091D2028091D302981739F08AEC4A
:100F100094E00E94EB0BF8018183EBCFCE5F6C2F46
:100F200070E04CE052E087E7DF91CF911F910F9185
:100F3000FF90EF900C942E10EF92FF920F931F935F
:100F4000CF93DF9390E0FC01E956F109E231F1051E
:100F500008F065C2EA01162FE05CFF4F0C949B1667
:100F60002981922F987125FF03C08BE891E059C029
:100F7000888131E026FB222720F92327983061F170
:100F800060F491114CC23093490380936B0310922B
:100F90004A0310926C0302E006C09031E1F19831EF
:100FA00009F46EC03CC2011778F4FE01E00FF11D98
:100FB00061816795662767958081680F8AEC94E068
:100FC0000E9411010E5FEFCF81E00E94BE1083E10D
:100FD00091E00197F1F723C24B816A81163069F4E1
:100FE00070E030E8439F600D711D11244D814795DD
:100FF000442747959C81490F06C04795442747954C
:10100000460F6FEF7FEFDF91CF911F910F91FF9010
:10101000EF900C94EA06E0910001E73054F08BEA7F
:1010200091E0DF91CF911F910F91FF90EF900C9481
:101030007B109B813A81663071F4632F70E0F0E899
:101040009F9F600D711D11249D81979599279795FC
:101050004C81940F06C0979599279795930F6FEF42
:101060007FEFEF5FE093000135E0E302F001112430
:10107000EC57FD4F80837283618393832483CFC1B8
:101080002091000112163CF490E0622F022E000C19
:10109000770B35E00FC08FEF80930001C0C1349F04
:1010A000F001359FF00D1124EC57FD4F408184175E
:1010B00039F09F5F492F50E06417750784F790E07F
:1010C00085E022C09830F8F4FA0131968E9FD00165
:1010D0008F9FB00D1124AC57BD4F3C91849FF00100
:1010E000859FF00D1124EC57FD4F308311964D91E3
:1010F0005C9112975283418313963C9113973383EB
:1011000014963C9134839F5F492F50E06417750714
:10111000CCF621502093000182C1623070F0298109
:10112000888190E0E0E82E9F800D911D11240097AA
:1011300021F090934D0280934C02809167028111BF
:101140006EC1C0E08EEE8C0F823028F466E070E055
:101150008C2F0E940F04CF5FC431A1F781E08093F0
:1011600067021092D3021092D20210924A03109298
:101170006C0310924803809347031092220361E0AE
:1011800082E10E94280C61E083E10E94280C80919A
:10119000B9008E7F8093B9008091B9008D7F8093D4
:1011A000B90088E48093B80085E48093BC0089EDA1
:1011B0009BE09093D5028093D4028AED9BE09093BC
:1011C000D7028093D6022BC1653008F428C118815C
:1011D0008EEF810F823108F022C10981EA80FB8005
:1011E000CC81E12FF0E0E05BFD4F80818C30B0F4EA
:1011F00090E0FC01EE0FFF1F8E0F9F1FFC01E550DA
:10120000FB4F808190E0FC01EE0FFF1F8E0F9F1FB0
:10121000FC01EA52FB4F808186FDFDC04F2D50E05E
:10122000F0E8CF9F400D511D1124602F70E020E8A1
:10123000E29E600D711D1124812F0E949C0364E0C9
:1012400070E0812FDF91CF911F910F91FF90EF9070
:101250000C940F04623008F4E2C02981888190E088
:1012600030E8239F800D911D1124009711F481E037
:1012700090E09093020180930101D1C0623008F4A4
:10128000CEC0698170E0123091F08A81E0E88E9FD3
:10129000C0011124682B792B133049F08B8190E029
:1012A00090E4899F902D88271124682B792B8881C1
:1012B000DF91CF911F910F91FF90EF900C946002FE
:1012C00080EF0E94B1108CE60E94B110CEEF84EF47
:1012D0008C0F863038F482E00E94B1108AE00E94C0
:1012E000B11009C0C13039F483E00E94B11088E028
:1012F0000E94B11008C08DEF8C0F8230A8F389EFE7
:101300008C0F833088F3C23130F484E00E94B11036
:101310008EE00E94B11080EF8C0F823030F486E0B6
:101320000E94B11081E00E94B1108FE70E94B110BD
:10133000CF5FC23121F1C23150F680E00E94B1107E
:1013400081E00E94B1108BE00E94B11081E00E9408
:10135000B11081E00E94B11081E00E94B110B7CFBE
:10136000662309F45CC0C88180EF0E94B1108EE64C
:101370000E94B1108C2F0E94B110C43148F087EF49
:10138000DF91CF911F910F91FF90EF900C94B110CE
:10139000D0E0FE01E357FB4F80810E94B110CC0FDB
:1013A000DD1F8E010F551B4FF80180818F770E9442
:1013B000B110F801808191819C012078232B39F0B4
:1013C000880F892F881F990B8F770E94B110CF55F6
:1013D000DB4F888199819C012227307C232B79F275
:1013E000990F880B990F982F881F8F770E94B11043
:1013F000C6CF80EF0E94B1108AE60E94B110C2EF02
:10140000C63010F48C2F01C08FE70E94B110CF5F5F
:10141000C630B1F7B4CF812F0E94B100FFCEDF916B
:10142000CF911F910F91FF90EF900895CF92DF928F
:10143000EF92FF920F931F93CF93DF936C017A018A
:101440008B01C0E0D0E0CE15DF0581F0D8016D91B1
:101450008D01D601ED91FC910190F081E02DC60146
:101460000995892B11F02196EECF7E01C701DF91FE
:10147000CF911F910F91FF90EF90DF90CF90089543
:10148000FC01538D448D252F30E0842F90E0821B8A
:10149000930B541710F0CF96089501970895FC010F
:1014A000918D828D981761F0828DDF01A80FB11D9B
:1014B0005D968C91928D9F5F9F73928F90E00895BF
:1014C0008FEF9FEF0895FC01918D828D981731F079
:1014D000828DE80FF11D858D90E008958FEF9FEFCD
:1014E00008950E94C2178DE693E00E94440B21E00C
:1014F000892B09F420E0822F0895EF92FF920F9339
:101500001F93CF93DF93EC0181E0888F9B8D8C8DAF
:10151000981305C0E889F989808185FD26C0F62EDB
:101520000B8D10E00F5F1F4F0F731127E02E8C8D76
:10153000E8120CC00FB607FCFACFE889F989808160
:1015400085FFF5CFCE010E94060CF1CF8B8DFE01F9
:10155000E80FF11DE35AFF4FF0829FB7F8940B8F0D
:10156000EA89FB89808180620AC09FB7F894EE897E
:10157000FF896083E889F989808183708064808332
:101580009FBF81E090E0DF91CF911F910F91FF907D
:10159000EF900895CF93DF93EC01888D8823C9F0F5
:1015A000EA89FB89808185FD05C0A889B9898C916C
:1015B00086FD0FC00FB607FCF5CF808185FFF2CF07
:1015C000A889B9898C9185FFEDCFCE010E94060CC8
:1015D000E7CFDF91CF9108951F920F920FB60F9230
:1015E00011242F933F934F935F936F937F938F9328
:1015F0009F93AF93BF93EF93FF938DE693E00E9489
:10160000060CFF91EF91BF91AF919F918F917F91C8
:101610006F915F914F913F912F910F900FBE0F905F
:101620001F9018951F920F920FB60F9211242F93AF
:101630008F939F93EF93FF93E0917D03F0917E034F
:101640008081E0918303F091840382FD12C0908138
:10165000809186038F5F8F7320918703821751F0EB
:10166000E0918603F0E0E359FC4F958F8093860369
:1016700001C08081FF91EF919F918F912F910F90E9
:101680000FBE0F901F901895FC01918D228D892F10
:1016900090E0805C9F4F821B91098F73992708957A
:1016A00080E090E0892B29F00E94730A81110C944C
:1016B000000008953FB7F89480911E0390911F0396
:1016C000A0912003B091210326B5A89B05C02F3F10
:1016D00019F00196A11DB11D3FBFBA2FA92F982F58
:1016E0008827820F911DA11DB11DBC01CD0142E0D3
:1016F000660F771F881F991F4A95D1F70895E091CB
:101700007802F0917902309709F009940895862FB4
:10171000642FE0917602F0917702309711F0A901E1
:10172000099408950895862FE0916E02F0916F025A
:10173000309711F0BA0109940895862FE091700254
:10174000F0917102309711F0BA0109940895862F33
:10175000E0916A02F0916B02309711F0BA0109949E
:101760000895862FE0916C02F0916D02309711F090
:10177000BA0109940895862FE0917202F0917302E4
:10178000309711F0BA0109940895862FE091740200
:10179000F0917502309711F0BA010994089585ED22
:1017A0008093BC008091BC0084FDFCCF1092480364
:1017B0000895089508950895E091D3028091D2028A
:1017C000E81730F4F0E0EE54FD4F808190E008958A
:1017D0008FEF9FEF08959091D3028091D2029817D6
:1017E00050F4E92FF0E0EE54FD4F208130E09F5F90
:1017F0009093D30202C02FEF3FEFC90108950097E5
:1018000021F0805C9F4F0C9487100895FC01848D1B
:10181000DF01A80FB11DA35ABF4F2C91848D90E01A
:1018200001968F739927848FA689B7892C93A089F5
:10183000B1898C91837080648C93938D848D98137F
:1018400006C00288F389E02D80818F7D8083089512
:1018500090E0FC01E052FF4F2491FC01E453FF4F64
:101860003491FC01E854FF4FE491EE2309F43CC0AD
:10187000222339F1233091F038F42130A9F02230BD
:1018800001F584B58F7D12C0273091F02830A1F08A
:101890002430B9F4809180008F7D03C08091800056
:1018A0008F77809380000DC084B58F7784BD09C089
:1018B0008091B0008F7703C08091B0008F7D8093BE
:1018C000B000F0E0EE0FFF1FE255FF4FA591B4917D
:1018D0009FB7F894611104C08C913095382302C0F1
:1018E000EC913E2B3C939FBF0895CF93DF9390E004
:1018F000FC01E453FF4F2491FC01E854FF4F849115
:10190000882361F190E0880F991FFC01EC55FF4F8F
:10191000C591D491FC01E255FF4FA591B49161119D
:1019200009C09FB7F8948881209582238883EC9121
:101930002E230BC0623061F49FB7F8948881322F58
:10194000309583238883EC912E2B2C939FBF06C068
:101950008FB7F894E8812E2B28838FBFDF91CF912A
:1019600008958E3008F08E508770806480937C00DC
:1019700080917A00806480937A0080917A0086FD5D
:10198000FCCF809178002091790090E0922B08950F
:101990008F929F92AF92BF92CF92DF92EF92FF927F
:1019A0006B017C010E945A0B4B015C01C114D104F4
:1019B000E104F104F1F00E945A0BDC01CB0188191B
:1019C0009909AA09BB09883E9340A105B10570F3A6
:1019D00021E0C21AD108E108F10888EE880E83E000
:1019E000981EA11CB11CC114D104E104F10419F723
:1019F000DDCFFF90EF90DF90CF90BF90AF909F90A2
:101A00008F9008951F920F920FB60F9211242F936B
:101A10003F938F939F93AF93BF9380918002909158
:101A20008102A0918202B091830230911D0323E0D4
:101A3000230F2D3720F40196A11DB11D05C026E806
:101A4000230F0296A11DB11D20931D0380938002D8
:101A500090938102A0938202B093830280911E032F
:101A600090911F03A0912003B09121030196A11D25
:101A7000B11D80931E0390931F03A0932003B09386
:101A80002103BF91AF919F918F913F912F910F9023
:101A90000FBE0F901F9018951F920F920FB60F92C6
:101AA00011240F900FBE0F901F9018953F924F92E8
:101AB0005F926F927F928F929F92AF92BF92CF92DE
:101AC000DF92EF92FF920F931F93CF93DF935C010E
:101AD0006901DA013C90232B19F4CC24CA94DC2C44
:101AE0007A012A01460E571EC0E0D0E000E010E067
:101AF00087E0682E712CE414F50409F443C00C153A
:101B00001D0508F067C04701F50180819181D7016B
:101B10006D917D010C2E01C0660F0A94EAF76329CE
:101B20006F77DC01ED91FC910190F081E02D09953A
:101B30000F5F1F4FF401608170E0C3018C1B9D0B90
:101B400002C0759567958A95E2F7362E2196C730C3
:101B5000D10588F2C016D10699F0D5018D919C91DE
:101B6000632D6F77DC01ED91FC910190F081E02D08
:101B700009950F5F1F4F331C3324331C2797E7CF82
:101B80008601B9CF209731F10C151D0518F5F50127
:101B90008081918161E070E001C0660FCA95EAF72B
:101BA00061506321DC01ED91FC910190F081E02D09
:101BB000DF91CF911F910F91FF90EF90DF90CF9029
:101BC000BF90AF909F908F907F906F905F904F905D
:101BD0003F900994DF91CF911F910F91FF90EF906B
:101BE000DF90CF90BF90AF909F908F907F906F903D
:101BF0005F904F903F900895DF92EF92FF920F9386
:101C00001F93CF93DF93FC01E058FF4FD080DD207E
:101C100009F45DC0EC01C05CDF4FA881B981109769
:101C200009F455C0FC01EF57FF4F00811181F80105
:101C3000F180E080ED91FC9111970190F081E02D11
:101C400060EFCD01099588819981DC01ED91FC91CE
:101C50000190F081E02D69E7099588819981DC0187
:101C6000ED91FC910190F081E02D6E2D0995888118
:101C70009981DC01ED91FC910190F081E02D6F2DB7
:101C800009957801B2E0EB0EF11C0D0D111DE01667
:101C9000F10661F020E030E0A70161E070E0CE01E4
:101CA0000E94560DEFEFEE1AFE0AF1CF888199815E
:101CB000DC01ED91FC910190F081E02D67EFDF9167
:101CC000CF911F910F91FF90EF90DF900994DF91DA
:101CD000CF911F910F91FF90EF90DF9008950097A3
:101CE00011F00C94FC0D08951F920F920FB60F92F5
:101CF00011242F933F934F935F936F937F938F9311
:101D00009F93AF93BF93EF93FF938091B900887F28
:101D1000803609F49CC068F5883209F45BC090F401
:101D2000803109F454C038F4882309F4F6C08830AF
:101D300009F44DC0F6C0883109F44CC0803209F472
:101D40005DC0EFC0803409F468C048F4803309F402
:101D500055C0883309F0E5C080934603D8C080356C
:101D600009F44FC0883509F45DC0883409F0D9C042
:101D7000D6C0883909F4C7C0A8F4883709F467C009
:101D800038F4883609F463C0803709F460C0C9C0EC
:101D9000883809F4B8C0803909F45FC0803809F088
:101DA000C0C05BC0803B09F486C038F4803A09F4B7
:101DB00066C0883A09F47FC0B4C0803C09F4A7C06B
:101DC000883C09F4A4C0883B09F48AC0AAC0809169
:101DD000230310C09091450380914403981770F538
:101DE000E091450381E08E0F80934503F0E0EC5DC8
:101DF000FC4F80818093BB0085EC86C080934603B6
:101E00008EC0E091450381E08E0F80934503809161
:101E1000BB00F0E0EC5DFC4F808390914503809126
:101E200044036EC0E091450381E08E0F809345032B
:101E30008091BB00F0E0EC5DFC4F80838091470314
:101E400081116DC081E08093220384EA61C083E048
:101E50008093480310921A03CFCF80911A038032E7
:101E600008F051C0E0911A0381E08E0F80931A03AD
:101E70008091BB00F0E0E650FD4F8083BDCF85EC44
:101E80008093BC001092480380911A03803230F492
:101E9000E0911A03F0E0E650FD4F108260911A03C2
:101EA00070E0E091D602F091D7028AEF92E00995B6
:101EB00010921A0336C084E0809348031092F9020E
:101EC0001092F802E091D402F091D5020995809128
:101ED000F802811105C081E08093F8021092D802C7
:101EE000E091F90281E08E0F8093F902F0E0E85270
:101EF000FD4F80818093BB009091F9028091F802A0
:101F0000981708F479CF85E88093BC000AC085EC67
:101F10008093BC001092480304C0109246030E94B4
:101F2000CF0BFF91EF91BF91AF919F918F917F91D7
:101F30006F915F914F913F912F910F900FBE0F9036
:101F40001F9018954091F802262F30E0240F311D84
:101F500021323105DCF4209148032430C9F4FC011E
:101F600080E090E0861758F43091F8022191DC016E
:101F7000A852BD4FA30FB11D2C930196F3CF8091B2
:101F8000F802680F6093F80280E0089581E00895F8
:101F900082E008951F93CF93DF9300D0CDB7DEB7D3
:101FA000182F7A83698380914A0490914B0400979B
:101FB00009F44EC0DC01ED91FC911031A8F46115DB
:101FC000704490F4612F606E0190F081E02D0995CE
:101FD00022E030E0AE014F5F5F4F62E070E08AE4E4
:101FE00094E00E94560D34C00190F081E02D60EF26
:101FF000099580914A0490914B04DC01ED91FC918C
:102000000190F081E02D6FE6099580914A0490914E
:102010004B04DC01ED91FC910190F081E02D612FEA
:10202000099522E030E0AE014F5F5F4F62E070E063
:102030008AE494E00E94560D80914A0490914B04EA
:10204000DC01ED91FC910190F081E02D67EF0995A5
:102050000F900F90DF91CF911F910895EF92FF9213
:102060000F931F93CF93DF93C82F80914A049091D1
:102070004B040097C9F17A018B01DC01ED91FC91D1
:102080000190F081E02D60EF099580914A049091D4
:102090004B04DC01ED91FC910190F081E02D6C2F5F
:1020A0000995E7010E0D1F1DC017D10759F020E05B
:1020B00030E0AE0161E070E08AE494E00E94560DE9
:1020C0002196F2CF80914A0490914B04DC01ED916E
:1020D000FC910190F081E02D67EFDF91CF911F918E
:1020E0000F91FF90EF900994DF91CF911F910F9185
:1020F000FF90EF900895FC0101900020E9F73197DF
:10210000BF01681B790BAC0181E70C942E10CF93B3
:10211000DF93FC01A081B181109701F1EC01ED91F9
:10212000FC9111970190F081E02D69EFCD010995A7
:1021300088819981DC01ED91FC910190F081E02D85
:1021400062E0099588819981DC01ED91FC91019013
:10215000F081E02D65E0DF91CF910994DF91CF917F
:102160000895A0918804B0918904ED91FC91119794
:102170000190F081E02D682FCD010994282F309136
:102180006C03313208F04AC0809148038111FCCFC2
:1021900090916B0342E040934803209347032FEF55
:1021A000209346031092450330934403EBE4F3E09D
:1021B000A4E2B3E020E0321721F041914D932F5F6C
:1021C000FACF1092230320912303990F922B90931F
:1021D000230390912203913061F410922203909195
:1021E00023039093BB009091BC0093FDF8CF95EC36
:1021F00001C095EE9093BC00909148039230E1F3BA
:10220000909146039F3F79F080914603803241F0E0
:1022100080914603803331F084E005C081E003C043
:1022200082E001C083E010924A0310926C03109286
:10223000490308951F93CF93DF93182FEB018091EB
:102240004F049091500468177907A8F0E0917C043E
:10225000F0917D0481E03097C1F080934C0480912F
:10226000680490916904099580914F0490915004FD
:10227000C817D90748F480914D0490914E04C80FB7
:10228000D91F188380E001C081E0DF91CF911F91B9
:102290000895AC01FB0180E090E09C01220F331F08
:1022A0002417350770F4DB012C91208311963C91A3
:1022B000379533273795232B219301966E5F7F4FF8
:1022C000ECCF0895789484B5826084BD84B5816034
:1022D00084BD85B5826085BD85B5816085BD8091F1
:1022E0006E00816080936E00109281008091810069
:1022F0008260809381008091810081608093810061
:10230000809180008160809380008091B100846022
:102310008093B1008091B00081608093B000809183
:102320007A00846080937A0080917A008260809342
:102330007A0080917A00816080937A0080917A009F
:10234000806880937A001092C10085E180938A04AE
:1023500080918B0490918C040E943917C0918A045B
:10236000D0E0CE0101960E94A11690938C04809338
:102370008B04FC01EC0FFD1F108212E0DC011C93AA
:1023800025E011962C93AE01425051096BEE71E09D
:1023900002960E94C71780E692E0909375028093A0
:1023A000740280EC91E090937302809372028AED44
:1023B00093E0909371028093700283EC96E0909387
:1023C0006F0280936E028FE094E090936D02809391
:1023D0006C0287E893E090936B0280936A028CE929
:1023E00097E0909377028093760285E795E090934B
:1023F000790280937802E0917D03F0917E0310834F
:10240000E0917D03F0917E031082E0917903F091D9
:102410007A031082E0917B03F0917C0380E180835A
:1024200010928503E0918103F091820386E080831E
:10243000E0917F03F0918003808180618083E0914F
:102440007F03F0918003808188608083E0917F0327
:10245000F0918003808180688083E0917F03F09118
:10246000800380818F7D80838091C904811140C069
:1024700061E08DE00E94750CC0E062ED70E080E0EC
:1024800090E00E94C80C61E08DE00E94280C68E298
:1024900070E080E090E00E94C80C60E08DE00E9457
:1024A000280CCF5FC23049F76AEF70E080E090E01F
:1024B0000E94C80CC0E062ED70E080E090E00E94F5
:1024C000C80C61E08DE00E94280C68E270E080E0BA
:1024D00090E00E94C80C60E08DE00E94280CCF5F65
:1024E000C53049F76DE770E080E090E00E94C80CCD
:1024F0008DE693E0909389048093880490934B0435
:1025000080934A048AE494E00E9487108AE094E071
:102510000E94FC0D0E947505EE24E394C2E0D0E019
:1025200001E010E025E0D22E80917D02882349F061
:1025300069B180917A0268236C7F40E080E00E945C
:10254000810680917E02882381F083B196B1682F45
:102550006F73B0E49B9FC0011124862B60917B02B6
:10256000682340E081E00E94810680917F028823F9
:1025700059F066B16C736695669580917C0268230C
:1025800040E082E00E948106809188049091890455
:10259000DC01ED91FC910084F185E02D0995892BFA
:1025A00009F4CEC18091880490918904DC01ED91F9
:1025B000FC910284F385E02D09959C018F3FBFEFCC
:1025C0009B0711F3982F80915504882309F492C03A
:1025D000973F09F07EC010925504A0914D04B09130
:1025E0004E046C916137C1F1693709F05CC0E0912C
:1025F0008204F0918304309739F2809156049091CF
:1026000057048330910538F420E030E040E050E09A
:1026100060E070E01BC0BD016D5F7F4F03970E94BB
:102620004911BC016D5F7F4F80E00E941A11E0915B
:102630004D04F0914E049F012D5F3F4F428150E0C9
:10264000618170E0E0918204F091830480916404E0
:1026500090916504099598CF80917E0490917F04B4
:10266000892B09F491CFBD016F5F7F4F8091560494
:102670009091570401970E944911BC016F5F7F4FF1
:1026800080E00E941A1160914D0470914E046F5FBA
:102690007F4FE0917E04F0917F0480916A049091D5
:1026A0006B04099571CFE0918004F091810430971B
:1026B00009F46ACF9D012F5F3F4F4091560450911E
:1026C00057044150510980916C0490916D04099513
:1026D0005BCF6091560470915704822F0E941A11AB
:1026E00080915604909157040196909357048093DB
:1026F00056044ACF609153047091540461157105DA
:1027000009F4AFC027FDADC0615071097093540446
:1027100060935304822F0E941A1180915304909168
:102720005404892B09F030CF80915104882309F497
:102730002BCF803D09F47FC030F4803939F1803CE3
:1027400009F466C08BC0843FE1F1853F09F44DC0B8
:10275000803E09F083C0E0917004F09171043097DD
:1027600009F47CC0A0914D04B0914E048C91119657
:102770004C9150E020E8829F400D511D1124609142
:102780005204809158049091590467C0E0917204FA
:10279000F0917304309709F461C0A0914D04B09199
:1027A0004E048C9111964C9150E090E8899F400D19
:1027B000511D11246091520480915A0490915B0440
:1027C0004CC0E0917804F0917904309709F446C048
:1027D000A0914D04B0914E044C9150E011966C9133
:1027E000809160049091610438C0E0917A04F09186
:1027F0007B04309799F1A0914D04B0914E044C9117
:1028000050E011966C91809162049091630425C010
:10281000E0917404F0917504309701F1A0914D049A
:10282000B0914E044C9150E06091520480915C0450
:1028300090915D0412C0E0917604F0917704309796
:1028400069F0A0914D04B0914E044C9150E060911C
:10285000520480915E0490915F0409951092510496
:1028600093CE903F30F4822F8F7080935204922F3A
:10287000907F903F79F158F4903C29F118F4903909
:10288000E9F082CE903DF9F0903EC1F07DCE993FC7
:1028900009F449C028F48CE0890F823078F074CEB6
:1028A0009F3F09F071CE109254041092530410927D
:1028B00051041092520480E090E013C0D09354046D
:1028C000C093530404C01093540400935304909392
:1028D00051045ACEE09255041092570410925604B7
:1028E00053CE20914F04309150048217930748F43F
:1028F000E0914D04F0914E04E80FF91F108201960B
:10290000F0CF109255041092570410925604E091A3
:102910008604F0918704309709F436CE80916E04D6
:1029200090916F040BC0E0918404F091850430977E
:1029300009F42ACE8091660490916704099524CE0B
:102940008FB7F89440918002509181026091820289
:10295000709183028FBF8090AE029090AF02A090E2
:10296000B002B090B1022091010130910201C90181
:10297000A0E0B0E0481959096A097B098417950756
:10298000A607B70708F052C0880D991DAA1DBB1DE8
:102990008093AE029093AF02A093B002B093B102C5
:1029A0008DE8A82E84E0B82E92EFF92EA5E0AF15A1
:1029B000B8F0F5018081823099F48091AC02909159
:1029C000AD020F2C02C0959587950A94E2F780FF1F
:1029D00007C08F2D0E94B10CBC018F2D0E94CA0F21
:1029E000F394FFEFAF1ABF0A26E0F212DFCF809117
:1029F000000187FD1BC0F12C2F2D30E080910001DC
:102A0000082E000C990B8217930784F0D29EF001D8
:102A1000D39EF00D1124EC57FD4F6181728124810A
:102A2000438180810E94EA06F394E6CF0E94500B16
:102A30007BCD1092700310926F0348EE53E060E07C
:102A400070E040937103509372036093730370932B
:102A500074038DE091E090936E0380936D0385EC99
:102A600090E090937A038093790384EC90E09093C4
:102A70007C0380937B0380EC90E090937E038093B3
:102A80007D0381EC90E09093800380937F0382EC40
:102A900090E0909382038093810386EC90E0909382
:102AA000840380938303109286031092870310920D
:102AB0008803109289038AE094E010924B041092EC
:102AC0004A0490934E0480934D0420E430E0309308
:102AD000500420934F04109251041092520410920B
:102AE00054041092530410925504109257041092FB
:102AF0005604109259041092580410925B041092DC
:102B00005A0410925D0410925C0410925F041092BB
:102B10005E0410926104109260041092630410929B
:102B20006204109269041092680410926B0410926F
:102B30006A0410926D0410926C0410926F0410924B
:102B40006E0410927D0410927C0410924C0410923A
:102B50008A0410928C0410928B041092C90425EC04
:102B60003BE030937104209370042BEB3BE03093F7
:102B70007304209372042DE93BE030937504209395
:102B8000740423E93BE0309377042093760421EB2F
:102B90003BE0309379042093780427EA3BE03093BC
:102BA0007B0420937A0422E93BE030937F04209356
:102BB0007E0427E83BE030938104209380042FE6D5
:102BC0003EE03093830420938204909365048093C5
:102BD00064042FEF3BE030938504209384049093AA
:102BE0006704809366048FE79BE09093870480934B
:102BF00086041092CD041092CC044093CE045093DE
:102C0000CF046093D0047093D1048FE191E090934E
:102C1000CB048093CA048091FA04ABEFB4E09FEF39
:102C200048EB5BE08C3078F48C93282F30E0F9018E
:102C3000EE0FFF1F2E0F3F1FF901EA52FB4F528389
:102C400041838F5F01C09C93139625E0AF31B2079B
:102C500049F78093FA040895052E97FB1EF400941B
:102C60000E94431657FD07D00E945E1607FC03D052
:102C70004EF40C94431650954095309521953F4F56
:102C80004F4F5F4F089590958095709561957F4F58
:102C90008F4F9F4F08950E948016A59F900DB49F5F
:102CA000900DA49F800D911D11240895B7FF0C94E1
:102CB0004B160E944B16821B930B0895A1E21A2E0D
:102CC000AA1BBB1BFD010DC0AA1FBB1FEE1FFF1FD0
:102CD000A217B307E407F50720F0A21BB30BE40B20
:102CE000F50B661F771F881F991F1A9469F7609567
:102CF0007095809590959B01AC01BD01CF01089521
:102D0000A29FB001B39FC001A39F700D811D11242C
:102D1000911DB29F700D811D1124911D0895991B65
:102D200079E004C0991F961708F0961B881F7A95C2
:102D3000C9F780950895EE0FFF1F0590F491E02DDF
:102D400009940F931F93CF93DF938230910510F472
:102D500082E090E0E0912105F091220520E030E052
:102D6000A0E0B0E0309719F14081518102811381D8
:102D700048175907C8F08417950769F4109731F080
:102D800012960C93129713961C9327C0009321055B
:102D90001093220522C02115310519F0421753075F
:102DA00018F49A01BD01EF01DF01F801DBCF211515
:102DB0003105F9F0281B390B2430310580F48A8164
:102DC0009B816115710521F0FB019383828304C00F
:102DD0009093220580932105FE01329644C0FE01A6
:102DE000E20FF31F81939193225031093983288395
:102DF0003AC020911F0530912005232B41F42091EA
:102E00000501309106013093200520931F05209184
:102E10000301309104012115310541F42DB73EB76E
:102E20004091070150910801241B350BE0911F05CB
:102E3000F0912005E217F307A0F42E1B3F0B281793
:102E4000390778F0AC014E5F5F4F2417350748F023
:102E50004E0F5F1F5093200540931F058193919360
:102E600002C0E0E0F0E0CF01DF91CF911F910F9120
:102E70000895CF93DF93009709F481C0FC01329746
:102E800013821282A0912105B0912205109781F43E
:102E900020813181820F931F20911F0530912005E1
:102EA0002817390751F5F0932005E0931F0567C0F7
:102EB000ED0120E030E0CE17DF0740F44A815B816E
:102EC0009E0141155105F1F0EA01F5CFD383C2838C
:102ED00040815181840F951FC817D90759F4888103
:102EE0009981840F951F0296918380838A819B81AB
:102EF000938382832115310529F4F0932205E09311
:102F000021053DC0E901FB83EA8349915991C40F32
:102F1000D51FEC17FD0761F480819181840F951F07
:102F20000296E90199838883828193819B838A83B6
:102F3000E0E0F0E012968D919C911397009719F0C4
:102F4000FD01DC01F7CF8D919C9111979D012E5FC2
:102F50003F4F820F931F20911F05309120052817A6
:102F6000390769F4309729F410922205109221054F
:102F700002C013821282B0932005A0931F05DF9137
:102F8000CF91089581E090E0F8940C94D617FB015E
:102F9000DC014150504048F001900D920020C9F7EB
:102FA00001C01D9241505040E0F70895F894FFCFC2
:102FB000FF1300000023058000000000007D0A16BA
:102FC0000A400ACA0A440B4F0A630A0000000011B3
:102FD00001E400AE00DB0BA500EB0BDC0B4D6178D0
:102FE00020736572766F73206174746163686564C1
:102FF00000556E6B6E6F776E2070696E206D6F641A
:1030000065004932433A20546F6F206D616E79201C
:1030100062797465732072656365697665640049D9
:1030200032433A20546F6F20666577206279746569
:10303000732072656365697665640031302D62695D
:10304000742061646472657373696E67206E6F7457
:1030500020737570706F7274656400746F6F206D8B
:10306000616E792071756572696573002F686F6D87
:10307000652F70692F446F63756D656E74732F458E
:1030800044445F50726F6A6563742F5374616E6459
:103090006172644669726D6174612F5374616E640C
:1030A0006172644669726D6174612E696E6F0000B1
:00000001FF
