:100000000C947B000C94A3000C94A3000C944C0D56
:100010000C944C0D0C944C0D0C94A3000C94A30068
:100020000C94A3000C94A3000C94A3000C94C005A2
:100030000C94A3000C94A3000C94A3000C94A300B4
:100040000C94020D0C94A3000C94120B0C94EC0A6B
:100050000C94A3000C94A3000C94A3000C94A30094
:100060000C94740E0C94A300AF04D4049D04ED040E
:100070000C053E0533053E053E053E056905BE04FB
:10008000F9090F0A60090F0AB0090F0A3E09E408CE
:100090000F0A0F0A0F0A0F0A0F0AB0070F0A8D087E
:1000A0000F0A2A0900000000240027002A0000008F
:1000B0000000250028002B000404040404040404A8
:1000C0000202020202020303030303030102040803
:1000D00010204080010204081020010204081020B2
:1000E00000000008000201000003040700000000F7
:1000F00000000000191511241FBECFEFD8E0DEBFAD
:10010000CDBF11E0A0E0B1E0E0EBFFE202C005905E
:100110000D92AC3FB107D9F725E0ACEFB1E001C0DB
:100120001D92AF31B207E1F710E0CBE7D0E004C099
:100130002197FE010E949B16CA37D107C9F70E947A
:1001400062110C94D6170C9400008091CE0290E0BE
:100150002091CF02821B91090895089580E090E0DC
:100160000895A82FB0E0A45BBD4F9C91292F30E0EB
:10017000F901EE0FFF1F2E0F3F1FF901E950FB4F52
:10018000E081F0E09F01220F331FE20FF31FEE52D8
:10019000FB4F80818F7B808380914A02981306C039
:1001A000992379F0915090934A020BC0882349F02B
:1001B000E0914B02EF5FE0934B02F0E0E550FE4F21
:1001C00090838FEF8C930895CF92DF92EF92FF92FE
:1001D0000F931F93CF93DF937C01CB018A01209172
:1001E0004503222389F0EB016B01C40ED51ECC150B
:1001F000DD0569F06991D701ED91FC910190F081E5
:10020000E02DC7010995F3CF642F0E94A20FC8010A
:10021000DF91CF911F910F91FF90EF90DF90CF90E2
:100220000895CF93DF931F92CDB7DEB769832091F6
:1002300045032223D1F020916803203240F021E0D1
:1002400030E0FC013383228380E090E015C0809190
:100250004603E82FF0E0E95BFC4F998190838F5FC4
:10026000809346038093680305C061E0CE01019648
:100270000E94A20F81E090E00F90DF91CF9108954E
:10028000DF92EF92FF920F931F93CF93DF93EC01D6
:10029000D62E7A01890188818C3008F068C061E02F
:1002A0008D2D0E94750C8881E82FF0E09F01220FB0
:1002B000331FE20FF31FEE52FB4F9D2D9F732081E2
:1002C000207CD22ED92AD08220E232E02E193F099A
:1002D00037FF02C02D5F3F4F359527953595279500
:1002E000298320E639E0201B310B37FF02C02D5F48
:1002F0003F4F35952795359527952A836CE00E94C9
:100300008F169CE0899FB001112440E050E09B01D2
:10031000240F351FF901EE0FFF1F2E0F3F1FF901AC
:10032000EE52FB4F908196FD16C04F5F5F4F4C30F1
:10033000510569F781110FC01092800082E080930F
:1003400081001092850010928400B19A80916F0014
:10035000826080936F00E881F0E0CF01880F991FE1
:10036000E80FF91FEE52FB4F808180648083888103
:10037000DF91CF911F910F91FF90EF90DF90089543
:100380008F929F92AF92BF92CF92DF92EF92FF92A5
:100390000F931F93CF93DF93833008F084C0982F7F
:1003A000990F990F990F58E0952E990E94E1991590
:1003B00010F444E1942E8B01D82FC82ECC0CCC0C19
:1003C000CC0CC0E0882483945B01BB24C91430F5B5
:1003D0008EEF8C0D8231F8F44C2D50E0FA01E75786
:1003E000FB4F20812230B8F4882D90E08A219B2198
:1003F000DD24D394009709F4D12C7A01EE0CFF1C74
:10040000213009F040C0C829F701E356FB4F8D2D7C
:1004100090E091838083880CC394D8CFD11108C019
:10042000F8946BB106270C7FC023C627CBB929C02F
:10043000D130D1F40C23F89495B18C2F8F73809523
:100440008923902F9F73892B85B998B1C295C69542
:10045000C695C370C0958C2F892302950695069585
:100460000370C02FC82B0CC0CF70F89488B16C2FCC
:10047000660F660F60956823C023CC0FCC0FC62B88
:10048000C8B9789410C0892B09F4BECFF701E356A0
:10049000FB4F80819181019709F4B6CF62E08C2DEA
:1004A0000E94750CB1CFDF91CF911F910F91FF90FA
:1004B000EF90DF90CF90BF90AF909F908F90089576
:1004C0008F929F92AF92BF92CF92DF92EF92FF9264
:1004D0000F931F93CF93DF93EB01843108F00AC190
:1004E000082F10E0F801E757FB4F9081933009F493
:1004F00096C0943009F0FEC08250823108F087C067
:10050000F801E45BFD4FE080F12C6701CC0CDD1CB1
:10051000603282E078070CF042C077FD05C0653B91
:10052000710524F4DB0104C0A0E001C0A4EBB0E03D
:10053000F601EE0DFF1DE950FB4F818128E830E008
:100540004901881A910887FD9394880C991C880C9E
:10055000991C092C000CAA08BB08828128E532E00E
:10056000281B310987FD3395220F331F220F331FBC
:10057000A901330F660B770B9A01AB0128193909D2
:100580004A095B090E94561624EB30E040E050E037
:100590000E942C16820E931EA41EB51E01C04B0194
:1005A000F601EE0DFF1DE950FB4F20812C3078F550
:1005B000318188E890E0831B910937FD9395880F7E
:1005C000991F880F991F8816990684F0828148E543
:1005D00052E0481B510987FD5395440F551F440FA6
:1005E000551FC401481559050CF4CA010297880F1C
:1005F000991F4FB7F89430E0F901EE0FFF1F2E0F4F
:100600003F1FF901EE52FB4F928381834FBF000FD2
:10061000111FF801E356FB4FD183C0836BC07B01F0
:10062000D82F833049F08BEF800F823028F087EF8E
:10063000800F833008F057C061E08D2F0E94750C49
:10064000E114F10411F460E005C08FEFE816F10445
:1006500029F461E08D2F0E94280C45C0F801E0527A
:10066000FF4FE491E330F9F048F4E130B9F0E230C3
:10067000A1F584B5806284BDE8BC35C0E730E9F0FF
:10068000E83019F1E43049F5809180008062809370
:100690008000F0928B00E0928A0025C084B58068CB
:1006A00084BDE7BC20C0809180008068809380007A
:1006B000F0928900E092880016C08091B0008068B6
:1006C0008093B000E092B3000EC08091B0008062D1
:1006D0008093B000E092B40006C080E8E816F10410
:1006E0000CF0B7CFB0CF000F111FF801E356FB4F4E
:1006F000F182E082DF91CF911F910F91FF90EF90F7
:10070000DF90CF90BF90AF909F908F9008959EEF15
:10071000980F923180F4E82FF0E0DF01A757BB4F2C
:100720009C91913041F4EE0FFF1FE356FB4F608325
:1007300071830C94280C0895DB0190914A029C303F
:10074000A8F530914B02682F70E0332369F0E32F56
:10075000F0E0E550FE4F8081FB01E45BFD4F8083BC
:10076000315030934B0207C0FB01E45BFD4F908397
:100770009F5F90934A02FB01E45BFD4F808190E014
:100780009C01220F331F820F931F1A161B0634F48D
:10079000141615061CF49A01AD0104C020E639E0D8
:1007A00040E252E089509B4F0C9440018DE291E071
:1007B0000C947B10CF93863080F54091A802509125
:1007C000A90221E030E0672B81F4B90102C0660F75
:1007D000771F8A95E2F7CB01809590958423952326
:1007E0009093A9028093A80218C0082E02C0220F7D
:1007F000331F0A94E2F7242B352B3093A902209360
:10080000A80290916402911108C0C82F0E94B10CF7
:10081000BC018C2FCF910C94CA0FCF9108958F9269
:100820009F92BF92CF92DF92EF92FF920F931F930E
:10083000CF93DF93C82ED12CE601CA5FDB4FFE01B8
:10084000ED57FF4F90819F3709F443C1963041F433
:1008500090916302992321F06630710509F01DC162
:100860007B01182F0EEF080F0231F8F46430710588
:10087000E1F0F601E45BFD4F80818C30B0F490E054
:10088000FC01EE0FFF1F8E0F9F1FFC01E950FB4F75
:10089000808190E0FC01EE0FFF1F8E0F9F1FFC0177
:1008A000EE52FB4F808186FDFEC052EFB52EB10E99
:1008B00085E08B1558F061E070E082E0E816F10405
:1008C00011F060E070E08B2D0E94DA03023118F520
:1008D000E12FE695E695E695212F2770F0E0EA589E
:1008E000FD4FE114F10421F08BE0E816F10449F426
:1008F00081E090E001C0880F2A95EAF79081892B6A
:1009000009C081E090E001C0880F2A95EAF7809540
:100910009081892380834601880C991CF401E35659
:10092000FB4F118210828CE0E816F10408F0A6C09B
:10093000F701EC5CFF4F0C949B1685E08B1508F4D7
:10094000C8C0023120F460E0812F0E94750CCD57A1
:10095000DF4F88818F3709F4BCC082E08DC002313F
:1009600008F0B7C060E0812F0E94750CCD57DF4FB3
:1009700088818F3709F4ADC01882ABC0023108F00E
:10098000A8C062E0812F0E94750CCD57DF4F88818F
:100990008F3711F08BE08883F401E356FB4F81E041
:1009A00090E09183808395C0023108F092C0FE01EF
:1009B000ED57FF4F8081833021F460E0812F0E944A
:1009C000280C61E0812F0E94750CCD57DF4F888184
:1009D0008F3709F47EC081E04FC0133049F08BEFB0
:1009E000810F823028F087EF810F833008F071C0CB
:1009F00061E0812F0E94750C61E0812F0E94750CCF
:100A000060E0812F0E94280CCD57DF4F88818F37FF
:100A100009F45FC083E030C0023108F05AC0CD57FE
:100A2000DF4F88818F3711F084E08883F601E45B23
:100A3000FD4F80818F3FD9F190E0FC01EE0FFF1F49
:100A40008E0F9F1FFC01E950FB4F808190E0FC015D
:100A5000EE0FFF1F8E0F9F1FFC01EE52FB4F808198
:100A600086FD37C024C01251123098F5CD57DF4FA4
:100A700088818F3771F186E088832BC081E491E013
:100A8000DF91CF911F910F91FF90EF90DF90CF906A
:100A9000BF909F908F900C947B10109263029FEFF9
:100AA00090930001DDCE812F0E94B100FECE4FEF6A
:100AB0005FEF6FEF7FEF812FDF91CF911F910F914C
:100AC000FF90EF90DF90CF90BF909F908F900C940D
:100AD0009C03DF91CF911F910F91FF90EF90DF90DA
:100AE000CF90BF909F908F9008950F931F93CF93B7
:100AF000DF9381E08093640280916302882329F070
:100B0000109263028FEF809300011092790210928D
:100B100076021092600210927A021092770210927E
:100B2000610210927B0210927802109262020CE431
:100B300012E0C0E0DFEF82EF8C0F863018F462E045
:100B400070E006C08EEF8C0F823128F461E070E017
:100B50008C2F0E940F04F801D1938F01CF5FC43115
:100B600051F71092A9021092A80210924B02109213
:100B70004A0210926402DF91CF911F910F91089564
:100B80001F920F920FB60F9211242F933F934F9302
:100B90005F936F937F938F939F93AF93BF93EF93E5
:100BA000FF938091650287FF05C010928500109227
:100BB00084001BC020916502022E000C330B809133
:100BC000F60490E02817390784F480916502082E16
:100BD000000C990BFC01EE0FFF1F8E0F9F1FFC01F5
:100BE000EE52FB4F808186FD15C0809165028F5FBC
:100BF0008093650220916502022E000C330B8091D8
:100C0000F60490E028173907C4F4809165028C300F
:100C100064F113C080916502082E000C990BFC0151
:100C2000EE0FFF1F8E0F9F1FFC01EE52FB4F8081C6
:100C300060E08F730E94280CD8CF8091840090913F
:100C40008500049680349C4918F480E49CE905C032
:100C50008091840090918500049690938900809300
:100C600088008FEF809365023BC020918400309113
:100C7000850080916502082E000C990BFC01EE0F97
:100C8000FF1F8E0F9F1FFC01EE52FB4F818192814F
:100C9000820F931F90938900809388008091650252
:100CA000082E000C990BFC01EE0FFF1F8E0F9F1FEB
:100CB000FC01EE52FB4F808186FF12C080916502DD
:100CC000082E000C990BFC01EE0FFF1F8E0F9F1FCB
:100CD000FC01EE52FB4F808161E08F730E94280C73
:100CE000FF91EF91BF91AF919F918F917F916F9104
:100CF0005F914F913F912F910F900FBE0F901F90DA
:100D00001895FF920F931F93CF93DF9300D0CDB729
:100D1000DEB7082F10E0F801EA58FD4F9081F62E5B
:100D2000F922005A1D4F411104C0F8019081F916B3
:100D300011F12F2D30E03A832983A0914604B09120
:100D400047041097B1F0682F6F706069ED91FC91C6
:100D500011970190F081E02DCD01099522E030E05E
:100D6000AE014F5F5F4F62E070E086E494E00E9466
:100D7000560DF801F0820F900F90DF91CF911F91E7
:100D80000F91FF900895833020F5282F30E0F9016E
:100D9000E758FD4F6083672BE1F0F901EA58FD4FFA
:100DA0009081811103C069B16C7F0FC0813049F41B
:100DB00063B136B16F7340E4349F90011124622B0C
:100DC00004C066B16C7366956695692341E00C9426
:100DD00081060895EF92FF920F931F93CF93DF93B5
:100DE000D82F8B01C42FF22E6F3F8FEF7807F9F0C9
:100DF00081E080934503D0936703109246031092DD
:100E0000680386EC94E00E9411018F2D0E94BE10B1
:100E100080914802909149028230910550F0880FEC
:100E2000991F880F991F05970197F1F702C000E0FD
:100E300010E0809144038111FCCF9C2FC13208F057
:100E400090E281E080934403809343032FEF20934B
:100E5000420310924103290F2093400380931F0304
:100E600080911F032D2F220F822B80931F038091CF
:100E70001E03813061F410921E0380911F03809342
:100E8000BB008091BC0083FDF8CF85EC01C085EEEE
:100E90008093BC00809144038130E1F38091410351
:100EA000891710F490914103E0E2F3E0AEEAB2E07A
:100EB00080E0891721F021912D938F5FFACF109256
:100EC000CF028093CE02EC2EF12C90E0E816F906CA
:100ED0001CF482E591E005C08E159F0524F48FE691
:100EE00091E00E947B10D09308020093090208E071
:100EF00012E0C801885092408E159F057CF40F5F68
:100F00001F4F9091CE028091CF02981739F086EC56
:100F100094E00E94EB0BF8018183EBCFCE5F6C2F46
:100F200070E048E052E087E7DF91CF911F910F9189
:100F3000FF90EF900C942E10EF92FF920F931F935F
:100F4000CF93DF9390E0FC01E956F109E231F1051E
:100F500008F065C2EA01162FE05CFF4F0C949B1667
:100F60002981922F987125FF03C08BE891E059C029
:100F7000888131E026FB222720F92327983061F170
:100F800060F491114CC23093450380936703109233
:100F900046031092680302E006C09031E1F19831F7
:100FA00009F46EC03CC2011778F4FE01E00FF11D98
:100FB00061816795662767958081680F86EC94E06C
:100FC0000E9411010E5FEFCF81E00E94BE1083E10D
:100FD00091E00197F1F723C24B816A81163069F4E1
:100FE00070E030E8439F600D711D11244D814795DD
:100FF000442747959C81490F06C04795442747954C
:10100000460F6FEF7FEFDF91CF911F910F91FF9010
:10101000EF900C94EA06E0910001E73054F08BEA7F
:1010200091E0DF91CF911F910F91FF90EF900C9481
:101030007B109B813A81663071F4632F70E0F0E899
:101040009F9F600D711D11249D81979599279795FC
:101050004C81940F06C0979599279795930F6FEF42
:101060007FEFEF5FE093000135E0E302F001112430
:10107000E058FD4F80837283618393832483CFC1C3
:101080002091000112163CF490E0622F022E000C19
:10109000770B35E00FC08FEF80930001C0C1349F04
:1010A000F001359FF00D1124E058FD4F4081841769
:1010B00039F09F5F492F50E06417750784F790E07F
:1010C00085E022C09830F8F4FA0131968E9FD00165
:1010D0008F9FB00D1124A058BD4F3C91849FF0010B
:1010E000859FF00D1124E058FD4F308311964D91EE
:1010F0005C9112975283418313963C9113973383EB
:1011000014963C9134839F5F492F50E06417750714
:10111000CCF621502093000182C1623070F0298109
:10112000888190E0E0E82E9F800D911D11240097AA
:1011300021F09093490280934802809163028111CB
:101140006EC1C0E08EEE8C0F823028F466E070E055
:101150008C2F0E940F04CF5FC431A1F781E08093F0
:1011600063021092CF021092CE02109246031092A8
:101170006803109244038093430310921E0361E0BE
:1011800082E10E94280C61E083E10E94280C80919A
:10119000B9008E7F8093B9008091B9008D7F8093D4
:1011A000B90088E48093B80085E48093BC0089EDA1
:1011B0009BE09093D1028093D0028AED9BE09093C4
:1011C000D3028093D2022BC1653008F428C1188164
:1011D0008EEF810F823108F022C10981EA80FB8005
:1011E000CC81E12FF0E0E45BFD4F80818C30B0F4E6
:1011F00090E0FC01EE0FFF1F8E0F9F1FFC01E950D6
:10120000FB4F808190E0FC01EE0FFF1F8E0F9F1FB0
:10121000FC01EE52FB4F808186FDFDC04F2D50E05A
:10122000F0E8CF9F400D511D1124602F70E020E8A1
:10123000E29E600D711D1124812F0E949C0364E0C9
:1012400070E0812FDF91CF911F910F91FF90EF9070
:101250000C940F04623008F4E2C02981888190E088
:1012600030E8239F800D911D1124009711F481E037
:1012700090E09093020180930101D1C0623008F4A4
:10128000CEC0698170E0123091F08A81E0E88E9FD3
:10129000C0011124682B792B133049F08B8190E029
:1012A00090E4899F902D88271124682B792B8881C1
:1012B000DF91CF911F910F91FF90EF900C946002FE
:1012C00080EF0E94B1108CE60E94B110CEEF84EF47
:1012D0008C0F863038F482E00E94B1108AE00E94C0
:1012E000B11009C0C13039F483E00E94B11088E028
:1012F0000E94B11008C08DEF8C0F8230A8F389EFE7
:101300008C0F833088F3C23130F484E00E94B11036
:101310008EE00E94B11080EF8C0F823030F486E0B6
:101320000E94B11081E00E94B1108FE70E94B110BD
:10133000CF5FC23121F1C23150F680E00E94B1107E
:1013400081E00E94B1108BE00E94B11081E00E9408
:10135000B11081E00E94B11081E00E94B110B7CFBE
:10136000662309F45CC0C88180EF0E94B1108EE64C
:101370000E94B1108C2F0E94B110C43148F087EF49
:10138000DF91CF911F910F91FF90EF900C94B110CE
:10139000D0E0FE01E757FB4F80810E94B110CC0FD7
:1013A000DD1F8E0103561B4FF80180818F770E944D
:1013B000B110F801808191819C012078232B39F0B4
:1013C000880F892F881F990B8F770E94B110C35601
:1013D000DB4F888199819C012227307C232B79F275
:1013E000990F880B990F982F881F8F770E94B11043
:1013F000C6CF80EF0E94B1108AE60E94B110C2EF02
:10140000C63010F48C2F01C08FE70E94B110CF5F5F
:10141000C630B1F7B4CF812F0E94B100FFCEDF916B
:10142000CF911F910F91FF90EF900895CF92DF928F
:10143000EF92FF920F931F93CF93DF936C017A018A
:101440008B01C0E0D0E0CE15DF0581F0D8016D91B1
:101450008D01D601ED91FC910190F081E02DC60146
:101460000995892B11F02196EECF7E01C701DF91FE
:10147000CF911F910F91FF90EF90DF90CF90089543
:10148000FC01538D448D252F30E0842F90E0821B8A
:10149000930B541710F0CF96089501970895FC010F
:1014A000918D828D981761F0828DDF01A80FB11D9B
:1014B0005D968C91928D9F5F9F73928F90E00895BF
:1014C0008FEF9FEF0895FC01918D828D981731F079
:1014D000828DE80FF11D858D90E008958FEF9FEFCD
:1014E00008950E94C21789E693E00E94440B21E010
:1014F000892B09F420E0822F0895EF92FF920F9339
:101500001F93CF93DF93EC0181E0888F9B8D8C8DAF
:10151000981305C0E889F989808185FD26C0F62EDB
:101520000B8D10E00F5F1F4F0F731127E02E8C8D76
:10153000E8120CC00FB607FCFACFE889F989808160
:1015400085FFF5CFCE010E94060CF1CF8B8DFE01F9
:10155000E80FF11DE35AFF4FF0829FB7F8940B8F0D
:10156000EA89FB89808180620AC09FB7F894EE897E
:10157000FF896083E889F989808183708064808332
:101580009FBF81E090E0DF91CF911F910F91FF907D
:10159000EF900895CF93DF93EC01888D8823C9F0F5
:1015A000EA89FB89808185FD05C0A889B9898C916C
:1015B00086FD0FC00FB607FCF5CF808185FFF2CF07
:1015C000A889B9898C9185FFEDCFCE010E94060CC8
:1015D000E7CFDF91CF9108951F920F920FB60F9230
:1015E00011242F933F934F935F936F937F938F9328
:1015F0009F93AF93BF93EF93FF9389E693E00E948D
:10160000060CFF91EF91BF91AF919F918F917F91C8
:101610006F915F914F913F912F910F900FBE0F905F
:101620001F9018951F920F920FB60F9211242F93AF
:101630008F939F93EF93FF93E0917903F0917A0357
:101640008081E0917F03F091800382FD12C0908140
:10165000809182038F5F8F7320918303821751F0F3
:10166000E0918203F0E0E759FC4F958F809382036D
:1016700001C08081FF91EF919F918F912F910F90E9
:101680000FBE0F901F901895FC01918D228D892F10
:1016900090E0805C9F4F821B91098F73992708957A
:1016A00080E090E0892B29F00E94730A81110C944C
:1016B000000008953FB7F89480911A0390911B039E
:1016C000A0911C03B0911D0326B5A89B05C02F3F18
:1016D00019F00196A11DB11D3FBFBA2FA92F982F58
:1016E0008827820F911DA11DB11DBC01CD0142E0D3
:1016F000660F771F881F991F4A95D1F70895E091CB
:101700007402F0917502309709F009940895862FBC
:10171000642FE0917202F0917302309711F0A901E9
:10172000099408950895862FE0916A02F0916B0262
:10173000309711F0BA0109940895862FE0916C0258
:10174000F0916D02309711F0BA0109940895862F37
:10175000E0916602F0916702309711F0BA010994A6
:101760000895862FE0916802F0916902309711F098
:10177000BA0109940895862FE0916E02F0916F02EC
:10178000309711F0BA0109940895862FE091700204
:10179000F0917102309711F0BA010994089585ED26
:1017A0008093BC008091BC0084FDFCCF1092440368
:1017B0000895089508950895E091CF028091CE0292
:1017C000E81730F4F0E0E255FD4F808190E0089595
:1017D0008FEF9FEF08959091CF028091CE029817DE
:1017E00050F4E92FF0E0E255FD4F208130E09F5F9B
:1017F0009093CF0202C02FEF3FEFC90108950097E9
:1018000021F0805C9F4F0C9487100895FC01848D1B
:10181000DF01A80FB11DA35ABF4F2C91848D90E01A
:1018200001968F739927848FA689B7892C93A089F5
:10183000B1898C91837080648C93938D848D98137F
:1018400006C00288F389E02D80818F7D8083089512
:1018500090E0FC01E052FF4F2491FC01E453FF4F64
:101860003491FC01E854FF4FE491EE2309F43CC0AD
:10187000222339F1233091F038F42130A9F02230BD
:1018800001F584B58F7D12C0273091F02830A1F08A
:101890002430B9F4809180008F7D03C08091800056
:1018A0008F77809380000DC084B58F7784BD09C089
:1018B0008091B0008F7703C08091B0008F7D8093BE
:1018C000B000F0E0EE0FFF1FE255FF4FA591B4917D
:1018D0009FB7F894611104C08C913095382302C0F1
:1018E000EC913E2B3C939FBF0895CF93DF9390E004
:1018F000FC01E453FF4F2491FC01E854FF4F849115
:10190000882361F190E0880F991FFC01EC55FF4F8F
:10191000C591D491FC01E255FF4FA591B49161119D
:1019200009C09FB7F8948881209582238883EC9121
:101930002E230BC0623061F49FB7F8948881322F58
:10194000309583238883EC912E2B2C939FBF06C068
:101950008FB7F894E8812E2B28838FBFDF91CF912A
:1019600008958E3008F08E508770806480937C00DC
:1019700080917A00806480937A0080917A0086FD5D
:10198000FCCF809178002091790090E0922B08950F
:101990008F929F92AF92BF92CF92DF92EF92FF927F
:1019A0006B017C010E945A0B4B015C01C114D104F4
:1019B000E104F104F1F00E945A0BDC01CB0188191B
:1019C0009909AA09BB09883E9340A105B10570F3A6
:1019D00021E0C21AD108E108F10888EE880E83E000
:1019E000981EA11CB11CC114D104E104F10419F723
:1019F000DDCFFF90EF90DF90CF90BF90AF909F90A2
:101A00008F9008951F920F920FB60F9211242F936B
:101A10003F938F939F93AF93BF9380917C0290915C
:101A20007D02A0917E02B0917F023091190323E0E4
:101A3000230F2D3720F40196A11DB11D05C026E806
:101A4000230F0296A11DB11D2093190380937C02E0
:101A500090937D02A0937E02B0937F0280911A033F
:101A600090911B03A0911C03B0911D030196A11D31
:101A7000B11D80931A0390931B03A0931C03B09392
:101A80001D03BF91AF919F918F913F912F910F9027
:101A90000FBE0F901F9018951F920F920FB60F92C6
:101AA00011240F900FBE0F901F9018953F924F92E8
:101AB0005F926F927F928F929F92AF92BF92CF92DE
:101AC000DF92EF92FF920F931F93CF93DF935C010E
:101AD0006901DA013C90232B19F4CC24CA94DC2C44
:101AE0007A012A01460E571EC0E0D0E000E010E067
:101AF00087E0682E712CE414F50409F443C00C153A
:101B00001D0508F067C04701F50180819181D7016B
:101B10006D917D010C2E01C0660F0A94EAF76329CE
:101B20006F77DC01ED91FC910190F081E02D09953A
:101B30000F5F1F4FF401608170E0C3018C1B9D0B90
:101B400002C0759567958A95E2F7362E2196C730C3
:101B5000D10588F2C016D10699F0D5018D919C91DE
:101B6000632D6F77DC01ED91FC910190F081E02D08
:101B700009950F5F1F4F331C3324331C2797E7CF82
:101B80008601B9CF209731F10C151D0518F5F50127
:101B90008081918161E070E001C0660FCA95EAF72B
:101BA00061506321DC01ED91FC910190F081E02D09
:101BB000DF91CF911F910F91FF90EF90DF90CF9029
:101BC000BF90AF909F908F907F906F905F904F905D
:101BD0003F900994DF91CF911F910F91FF90EF906B
:101BE000DF90CF90BF90AF909F908F907F906F903D
:101BF0005F904F903F900895DF92EF92FF920F9386
:101C00001F93CF93DF93FC01E058FF4FD080DD207E
:101C100009F45DC0EC01C05CDF4FA881B981109769
:101C200009F455C0FC01EF57FF4F00811181F80105
:101C3000F180E080ED91FC9111970190F081E02D11
:101C400060EFCD01099588819981DC01ED91FC91CE
:101C50000190F081E02D69E7099588819981DC0187
:101C6000ED91FC910190F081E02D6E2D0995888118
:101C70009981DC01ED91FC910190F081E02D6F2DB7
:101C800009957801B2E0EB0EF11C0D0D111DE01667
:101C9000F10661F020E030E0A70161E070E0CE01E4
:101CA0000E94560DEFEFEE1AFE0AF1CF888199815E
:101CB000DC01ED91FC910190F081E02D67EFDF9167
:101CC000CF911F910F91FF90EF90DF900994DF91DA
:101CD000CF911F910F91FF90EF90DF9008950097A3
:101CE00011F00C94FC0D08951F920F920FB60F92F5
:101CF00011242F933F934F935F936F937F938F9311
:101D00009F93AF93BF93EF93FF938091B900887F28
:101D1000803609F49CC068F5883209F45BC090F401
:101D2000803109F454C038F4882309F4F6C08830AF
:101D300009F44DC0F6C0883109F44CC0803209F472
:101D40005DC0EFC0803409F468C048F4803309F402
:101D500055C0883309F0E5C080934203D8C0803570
:101D600009F44FC0883509F45DC0883409F0D9C042
:101D7000D6C0883909F4C7C0A8F4883709F467C009
:101D800038F4883609F463C0803709F460C0C9C0EC
:101D9000883809F4B8C0803909F45FC0803809F088
:101DA000C0C05BC0803B09F486C038F4803A09F4B7
:101DB00066C0883A09F47FC0B4C0803C09F4A7C06B
:101DC000883C09F4A4C0883B09F48AC0AAC0809169
:101DD0001F0310C09091410380914003981770F544
:101DE000E091410381E08E0F80934103F0E0E05EDB
:101DF000FC4F80818093BB0085EC86C080934203BA
:101E00008EC0E091410381E08E0F80934103809169
:101E1000BB00F0E0E05EFC4F808390914103809135
:101E200040036EC0E091410381E08E0F8093410337
:101E30008091BB00F0E0E05EFC4F80838091430323
:101E400081116DC081E080931E0384EA61C083E04C
:101E50008093440310921603CFCF809116038032F3
:101E600008F051C0E091160381E08E0F80931603B5
:101E70008091BB00F0E0EA50FD4F8083BDCF85EC40
:101E80008093BC001092440380911603803230F49A
:101E9000E0911603F0E0EA50FD4F108260911603C6
:101EA00070E0E091D202F091D30286EF92E00995C2
:101EB0001092160336C084E0809344031092F5021A
:101EC0001092F402E091D002F091D1020995809134
:101ED000F402811105C081E08093F4021092D402D3
:101EE000E091F50281E08E0F8093F502F0E0EC5274
:101EF000FD4F80818093BB009091F5028091F402A8
:101F0000981708F479CF85E88093BC000AC085EC67
:101F10008093BC001092440304C0109242030E94BC
:101F2000CF0BFF91EF91BF91AF919F918F917F91D7
:101F30006F915F914F913F912F910F900FBE0F9036
:101F40001F9018954091F402262F30E0240F311D88
:101F500021323105DCF4209144032430C9F4FC0122
:101F600080E090E0861758F43091F4022191DC0172
:101F7000AC52BD4FA30FB11D2C930196F3CF8091AE
:101F8000F402680F6093F40280E0089581E0089500
:101F900082E008951F93CF93DF9300D0CDB7DEB7D3
:101FA000182F7A83698380914604909147040097A3
:101FB00009F44EC0DC01ED91FC911031A8F46115DB
:101FC000704490F4612F606E0190F081E02D0995CE
:101FD00022E030E0AE014F5F5F4F62E070E086E4E8
:101FE00094E00E94560D34C00190F081E02D60EF26
:101FF00009958091460490914704DC01ED91FC9194
:102000000190F081E02D6FE6099580914604909152
:102010004704DC01ED91FC910190F081E02D612FEE
:10202000099522E030E0AE014F5F5F4F62E070E063
:1020300086E494E00E94560D8091460490914704F6
:10204000DC01ED91FC910190F081E02D67EF0995A5
:102050000F900F90DF91CF911F910895EF92FF9213
:102060000F931F93CF93DF93C82F809146049091D5
:1020700047040097C9F17A018B01DC01ED91FC91D5
:102080000190F081E02D60EF0995809146049091D8
:102090004704DC01ED91FC910190F081E02D6C2F63
:1020A0000995E7010E0D1F1DC017D10759F020E05B
:1020B00030E0AE0161E070E086E494E00E94560DED
:1020C0002196F2CF8091460490914704DC01ED9176
:1020D000FC910190F081E02D67EFDF91CF911F918E
:1020E0000F91FF90EF900994DF91CF911F910F9185
:1020F000FF90EF900895FC0101900020E9F73197DF
:10210000BF01681B790BAC0181E70C942E10CF93B3
:10211000DF93FC01A081B181109701F1EC01ED91F9
:10212000FC9111970190F081E02D69EFCD010995A7
:1021300088819981DC01ED91FC910190F081E02D85
:1021400062E0099588819981DC01ED91FC91019013
:10215000F081E02D65E0DF91CF910994DF91CF917F
:102160000895A0918404B0918504ED91FC9111979C
:102170000190F081E02D682FCD010994282F309136
:102180006803313208F04AC0809144038111FCCFCA
:102190009091670342E040934403209343032FEF61
:1021A000209342031092410330934003E7E4F3E0AD
:1021B000A0E2B3E020E0321721F041914D932F5F70
:1021C000FACF10921F0320911F03990F922B909327
:1021D0001F0390911E03913061F410921E039091A1
:1021E0001F039093BB009091BC0093FDF8CF95EC3A
:1021F00001C095EE9093BC00909144039230E1F3BE
:10220000909142039F3F79F080914203803241F0E8
:1022100080914203803331F084E005C081E003C047
:1022200082E001C083E0109246031092680310928E
:10223000450308951F93CF93DF93182FEB018091EF
:102240004B0490914C0468177907A8F0E09178044A
:10225000F091790481E03097C1F080934804809137
:10226000640490916504099580914B0490914C040D
:10227000C817D90748F48091490490914A04C80FBF
:10228000D91F188380E001C081E0DF91CF911F91B9
:102290000895AC01FB0180E090E09C01220F331F08
:1022A0002417350770F4DB012C91208311963C91A3
:1022B000379533273795232B219301966E5F7F4FF8
:1022C000ECCF0895789484B5826084BD84B5816034
:1022D00084BD85B5826085BD85B5816085BD8091F1
:1022E0006E00816080936E00109281008091810069
:1022F0008260809381008091810081608093810061
:10230000809180008160809380008091B100846022
:102310008093B1008091B00081608093B000809183
:102320007A00846080937A0080917A008260809342
:102330007A0080917A00816080937A0080917A009F
:10234000806880937A001092C10085E180938604B2
:1023500080918704909188040E943917C091860467
:10236000D0E0CE0101960E94A1169093880480933C
:102370008704FC01EC0FFD1F108212E0DC011C93AE
:1023800025E011962C93AE014250510967EE71E0A1
:1023900002960E94C71780E692E0909371028093A4
:1023A000700280EC91E090936F0280936E028AED50
:1023B00093E090936D0280936C0283EC96E090938F
:1023C0006B0280936A028FE094E09093690280939D
:1023D000680287E893E090936702809366028CE935
:1023E00097E0909373028093720285E795E0909353
:1023F000750280937402E0917903F0917A0310835F
:10240000E0917903F0917A031082E0917503F091E5
:1024100076031082E0917703F091780380E1808366
:1024200010928103E0917D03F0917E0386E080832A
:10243000E0917B03F0917C03808180618083E09157
:102440007B03F0917C03808188608083E0917B0333
:10245000F0917C03808180688083E0917B03F09120
:102460007C0380818F7D80838091C504811140C071
:1024700061E08DE00E94750CC0E062ED70E080E0EC
:1024800090E00E94C80C61E08DE00E94280C68E298
:1024900070E080E090E00E94C80C60E08DE00E9457
:1024A000280CCF5FC23049F76AEF70E080E090E01F
:1024B0000E94C80CC0E062ED70E080E090E00E94F5
:1024C000C80C61E08DE00E94280C68E270E080E0BA
:1024D00090E00E94C80C60E08DE00E94280CCF5F65
:1024E000C53049F76DE770E080E090E00E94C80CCD
:1024F00089E693E090938504809384049093470445
:102500008093460486E494E00E94871086E094E07D
:102510000E94FC0D0E947505EE24E394C2E0D0E019
:1025200001E010E025E0D22E80917902882349F065
:1025300069B18091760268236C7F40E080E00E9460
:10254000810680917A02882381F083B196B1682F49
:102550006F73B0E49B9FC0011124862B60917702BA
:10256000682340E081E00E94810680917B028823FD
:1025700059F066B16C736695669580917802682310
:1025800040E082E00E94810680918404909185045D
:10259000DC01ED91FC910084F185E02D0995892BFA
:1025A00009F4CEC18091840490918504DC01ED9101
:1025B000FC910284F385E02D09959C018F3FBFEFCC
:1025C0009B0711F3982F80915104882309F492C03E
:1025D000973F09F07EC010925104A0914904B09138
:1025E0004A046C916137C1F1693709F05CC0E09130
:1025F0007E04F0917F04309739F2809152049091DB
:1026000053048330910538F420E030E040E050E09E
:1026100060E070E01BC0BD016D5F7F4F03970E94BB
:102620004911BC016D5F7F4F80E00E941A11E0915B
:102630004904F0914A049F012D5F3F4F428150E0D1
:10264000618170E0E0917E04F0917F0480916004EC
:1026500090916104099598CF80917A0490917B04C0
:10266000892B09F491CFBD016F5F7F4F8091520498
:102670009091530401970E944911BC016F5F7F4FF5
:1026800080E00E941A116091490470914A046F5FC2
:102690007F4FE0917A04F0917B04809166049091E1
:1026A0006704099571CFE0917C04F0917D04309727
:1026B00009F46ACF9D012F5F3F4F40915204509122
:1026C000530441505109809168049091690409951F
:1026D0005BCF6091520470915304822F0E941A11B3
:1026E00080915204909153040196909353048093E7
:1026F00052044ACF60914F047091500461157105E6
:1027000009F4AFC027FDADC061507109709350044A
:1027100060934F04822F0E941A1180914F04909170
:102720005004892B09F030CF80914D04882309F49F
:102730002BCF803D09F47FC030F4803939F1803CE3
:1027400009F466C08BC0843FE1F1853F09F44DC0B8
:10275000803E09F083C0E0916C04F0916D043097E5
:1027600009F47CC0A0914904B0914A048C9111965F
:102770004C9150E020E8829F400D511D1124609142
:102780004E04809154049091550467C0E0916E040A
:10279000F0916F04309709F461C0A0914904B091A1
:1027A0004A048C9111964C9150E090E8899F400D1D
:1027B000511D112460914E0480915604909157044C
:1027C0004CC0E0917404F0917504309709F446C050
:1027D000A0914904B0914A044C9150E011966C913B
:1027E00080915C0490915D0438C0E0917604F09192
:1027F0007704309799F1A0914904B0914A044C9123
:1028000050E011966C9180915E0490915F0425C018
:10281000E0917004F0917104309701F1A0914904A6
:10282000B0914A044C9150E060914E04809158045C
:102830009091590412C0E0917204F09173043097A2
:1028400069F0A0914904B0914A044C9150E0609124
:102850004E0480915A0490915B04099510924D04A6
:1028600093CE903F30F4822F8F7080934E04922F3E
:10287000907F903F79F158F4903C29F118F4903909
:10288000E9F082CE903DF9F0903EC1F07DCE993FC7
:1028900009F449C028F48CE0890F823078F074CEB6
:1028A0009F3F09F071CE1092500410924F04109285
:1028B0004D0410924E0480E090E013C0D093500479
:1028C000C0934F0404C01093500400934F0490939E
:1028D0004D045ACEE09251041092530410925204C7
:1028E00053CE20914B0430914C048217930748F447
:1028F000E0914904F0914A04E80FF91F1082019613
:10290000F0CF109251041092530410925204E091AF
:102910008204F0918304309709F436CE80916A04E2
:1029200090916B040BC0E0918004F091810430978A
:1029300009F42ACE8091620490916304099524CE13
:102940008FB7F89440917C0250917D0260917E0295
:1029500070917F028FBF8090AA029090AB02A090EE
:10296000AC02B090AD022091010130910201C90189
:10297000A0E0B0E0481959096A097B098417950756
:10298000A607B70708F052C0880D991DAA1DBB1DE8
:102990008093AA029093AB02A093AC02B093AD02D5
:1029A00089E8A82E84E0B82E92EFF92EA5E0AF15A5
:1029B000B8F0F5018081823099F48091A80290915D
:1029C000A9020F2C02C0959587950A94E2F780FF23
:1029D00007C08F2D0E94B10CBC018F2D0E94CA0F21
:1029E000F394FFEFAF1ABF0A26E0F212DFCF809117
:1029F000000187FD1BC0F12C2F2D30E080910001DC
:102A0000082E000C990B8217930784F0D29EF001D8
:102A1000D39EF00D1124E058FD4F61817281248115
:102A2000438180810E94EA06F394E6CF0E94500B16
:102A30007BCD10926C0310926B0348EE53E060E084
:102A400070E040936D0350936E0360936F03709337
:102A500070038DE091E090936A038093690385ECA5
:102A600090E0909376038093750384EC90E09093CC
:102A700078038093770380EC90E090937A038093BF
:102A8000790381EC90E090937C0380937B0382EC4C
:102A900090E090937E0380937D0386EC90E090938A
:102AA000800380937F03109282031092830310921D
:102AB00084031092850386E094E0109247041092FC
:102AC000460490934A048093490420E430E0309314
:102AD0004C0420934B0410924D0410924E0410921B
:102AE000500410924F04109251041092530410920B
:102AF00052041092550410925404109257041092EC
:102B00005604109259041092580410925B041092CB
:102B10005A0410925D0410925C0410925F041092AB
:102B20005E0410926504109264041092670410927F
:102B30006604109269041092680410926B0410925B
:102B40006A0410927904109278041092480410924A
:102B5000860410928804109287041092C50425EC14
:102B60003BE030936D0420936C042BEB3BE03093FF
:102B70006F0420936E042DE93BE0309371042093A1
:102B8000700423E93BE0309373042093720421EB3B
:102B90003BE0309375042093740427EA3BE03093C4
:102BA00077042093760422E93BE030937B04209362
:102BB0007A0427E83BE030937D0420937C042FE6E1
:102BC0003EE030937F0420937E04909361048093D1
:102BD00060042FEF3BE030938104209380049093B6
:102BE0006304809362048FE79BE090938304809357
:102BF00082041092C9041092C8044093CA045093EE
:102C0000CB046093CC047093CD048FE191E090935A
:102C1000C7048093C6048091F604A7EFB4E09FEF49
:102C200048EB5BE08C3078F48C93282F30E0F9018E
:102C3000EE0FFF1F2E0F3F1FF901EE52FB4F528385
:102C400041838F5F01C09C93139625E0AB31B2079F
:102C500049F78093F6040895052E97FB1EF400941F
:102C60000E94431657FD07D00E945E1607FC03D052
:102C70004EF40C94431650954095309521953F4F56
:102C80004F4F5F4F089590958095709561957F4F58
:102C90008F4F9F4F08950E948016A59F900DB49F5F
:102CA000900DA49F800D911D11240895B7FF0C94E1
:102CB0004B160E944B16821B930B0895A1E21A2E0D
:102CC000AA1BBB1BFD010DC0AA1FBB1FEE1FFF1FD0
:102CD000A217B307E407F50720F0A21BB30BE40B20
:102CE000F50B661F771F881F991F1A9469F7609567
:102CF0007095809590959B01AC01BD01CF01089521
:102D0000A29FB001B39FC001A39F700D811D11242C
:102D1000911DB29F700D811D1124911D0895991B65
:102D200079E004C0991F961708F0961B881F7A95C2
:102D3000C9F780950895EE0FFF1F0590F491E02DDF
:102D400009940F931F93CF93DF938230910510F472
:102D500082E090E0E0911D05F0911E0520E030E05A
:102D6000A0E0B0E0309719F14081518102811381D8
:102D700048175907C8F08417950769F4109731F080
:102D800012960C93129713961C9327C000931D055F
:102D900010931E0522C02115310519F04217530763
:102DA00018F49A01BD01EF01DF01F801DBCF211515
:102DB0003105F9F0281B390B2430310580F48A8164
:102DC0009B816115710521F0FB019383828304C00F
:102DD00090931E0580931D05FE01329644C0FE01AE
:102DE000E20FF31F81939193225031093983288395
:102DF0003AC020911B0530911C05232B41F42091F2
:102E000005013091060130931C0520931B0520918C
:102E10000301309104012115310541F42DB73EB76E
:102E20004091070150910801241B350BE0911B05CF
:102E3000F0911C05E217F307A0F42E1B3F0B281797
:102E4000390778F0AC014E5F5F4F2417350748F023
:102E50004E0F5F1F50931C0540931B058193919368
:102E600002C0E0E0F0E0CF01DF91CF911F910F9120
:102E70000895CF93DF93009709F481C0FC01329746
:102E800013821282A0911D05B0911E05109781F446
:102E900020813181820F931F20911B0530911C05E9
:102EA0002817390751F5F0931C05E0931B0567C0FF
:102EB000ED0120E030E0CE17DF0740F44A815B816E
:102EC0009E0141155105F1F0EA01F5CFD383C2838C
:102ED00040815181840F951FC817D90759F4888103
:102EE0009981840F951F0296918380838A819B81AB
:102EF000938382832115310529F4F0931E05E09315
:102F00001D053DC0E901FB83EA8349915991C40F36
:102F1000D51FEC17FD0761F480819181840F951F07
:102F20000296E90199838883828193819B838A83B6
:102F3000E0E0F0E012968D919C911397009719F0C4
:102F4000FD01DC01F7CF8D919C9111979D012E5FC2
:102F50003F4F820F931F20911B0530911C052817AE
:102F6000390769F4309729F410921E0510921D0557
:102F700002C013821282B0931C05A0931B05DF913F
:102F8000CF91089581E090E0F8940C94D617FB015E
:102F9000DC014150504048F001900D920020C9F7EB
:102FA00001C01D9241505040E0F70895F894FFCFC2
:102FB000FF130000001F058000000000007D0A16BE
:102FC0000A400ACA0A440B4F0A630A0000000011B3
:102FD00001E400AE00DB0BA500EB0BDC0B4D6178D0
:102FE00020736572766F73206174746163686564C1
:102FF00000556E6B6E6F776E2070696E206D6F641A
:1030000065004932433A20546F6F206D616E79201C
:1030100062797465732072656365697665640049D9
:1030200032433A20546F6F20666577206279746569
:10303000732072656365697665640031302D62695D
:10304000742061646472657373696E67206E6F7457
:1030500020737570706F7274656400746F6F206D8B
:10306000616E792071756572696573002F686F6D87
:10307000652F50686F732F4769742F4544445F5024
:10308000726F6A6563742F5374616E646172644613
:1030900069726D6174612F5374616E64617264460C
:0C30A00069726D6174612E696E6F000032
:00000001FF
